:020000040800F2
:1000000058270120C101000899810008E960000813
:1000100095800008DD1400081DC7000800000000DE
:100020000000000000000000000000006FBD00089C
:10003000ED19000800000000EB08000855970008C3
:10004000FB010008FB010008FB010008FB010008A0
:10005000FB010008FB010008FB010008FB01000890
:10006000FB010008FB010008FB010008FB01000880
:10007000FB010008FB010008FB010008FB01000870
:10008000FB010008FB010008FB010008FB01000860
:10009000FB010008FB010008FB010008FB01000850
:1000A000FB010008FB010008FB010008FB01000840
:1000B000FB01000885C10008FB010008FB010008E6
:1000C000FB010008FB010008FB010008FB01000820
:1000D000FB010008FB010008FB010008FB01000810
:1000E000FB010008B1AE0008FB010008FB0100089D
:1000F000FB010008FB010008FB010008FB010008F0
:10010000FB010008FB010008FB010008FB010008DF
:10011000FB010008FB010008FB010008FB010008CF
:10012000FB010008FB010008FB010008FB010008BF
:10013000FB010008FB010008FB010008FB010008AF
:10014000FB010008FB010008FB010008FB0100089F
:10015000FB010008FB010008FB010008FB0100088F
:10016000FB010008FB010008FB010008FB0100087F
:10017000FB010008FB010008FB010008FB0100086F
:10018000FB010008FB010008FB010008FB0100085F
:10019000FB010008FB010008FB010008FB0100084F
:1001A000857E0008FB010008FB010008DFF80CD089
:1001B00000F02CFB00480047815A01085827012015
:1001C000DFF83800016841F470010160BFF34F8F20
:1001D000DFF82C00016821F040410160BFF36F8F10
:1001E0000848804708480047FEE7FEE7FEE7FEE7CD
:1001F000FEE7FEE7FEE7FEE7FEE7FEE788ED00E04C
:1002000034EF00E0E5BE0008AD01000872B67047AB
:1002100062B67047EFF3108072B6704780F31088B3
:10022000704730BF704720BF7047B0FA80F070470A
:1002300090FAA0F0B0FA80F0704790FAA0F0704702
:1002400010B5431A934209D28318881803E010F8B6
:10025000011D03F8011D521EF9D210BD40EA010331
:100260009B0703D009E008C9121F08C0042AFAD26C
:1002700003E011F8013B00F8013B521EF9D210BD1A
:10028000D2B201E000F8012B491EFBD270470022D8
:10029000F6E710B513460A4604461946FFF7F0FF85
:1002A000204610BD421C10F8011B0029FBD1801A0A
:1002B000704730B504460020034600E05B1C9342C3
:1002C00003D2E05CCD5C401BF8D030BD034611F892
:1002D000012B00F8012B002AF9D1184670472DE9AF
:1002E000FE4F804681EA0300C00F0C46009021F0CB
:1002F000004123F00045B8EB0200A94105D2404679
:10030000214690461C460B46024623F0004010430F
:1003100047D0270DC7F30A00C3F30A510290401AD1
:10032000019040286BDAC3F3130040F4801B00985F
:10033000924620B10023D2EB030A63EB0B0B01982A
:100340005946C0F14002504600F04BF906460D46B2
:1003500050465946019A00F063F910EB08006141DC
:10036000002487EA115284EAE7731A4340D0009AC6
:1003700062B3019A012A4FEA075215DC001B61EBB8
:1003800002014FF0004202EA0752CDE90042001C90
:1003900041F5801132462B4600F063F903B0BDE809
:1003A000F08F40462146F9E7001B61EB0201001C7B
:1003B00041F5801300185B412018A2F5001747EBA8
:1003C000030140EAD570B6196D4111E06D084FEA9E
:1003D000360645EAC0754FEA0752001B61EB020181
:1003E000001C41F5801149084FEA300000195141C5
:1003F00032462B4603B0BDE8F04F00F023B9009819
:10040000012240000023D0EB020263EBE07300986E
:1004100021464FEAE074B8EB000061EB0401E9E724
:1004200083F000435BE781F0004158E72DE9FE4F80
:1004300081EA030404F0004421F0004100944FF0ED
:10044000000B23F0004350EA01045ED052EA03049B
:100450005BD0C3F30A54C1F30A552C44A4F2F3341D
:100460000194A0FB0254C1F3130141F48011C3F3C2
:10047000130343F4801301FB024400FB034E840A80
:10048000970A44EA815447EA8357A4FB0768029518
:100490008D0A05FB07854FEA932C04FB0C542705B6
:1004A000029D4FEA065847EA1637B5EB08056EEB92
:1004B000070C870E920E47EA811742EA8312A7FBC8
:1004C0000201B6EB0B0164EB00042B0D43EA0C3385
:1004D0005E1844EB1C50DA465146E7FB0201C5F3B7
:1004E00013044FEA0B3343EA14534FEA0432019CDE
:1004F00043EA0603A4F10C040294009CCDE900B485
:1005000000F0AFF803B0BDE8F08F00200146F9E736
:100510000EB5C10F80EAE0700844CA07002140F21E
:1005200033438DE80E000A460B4600F09AF803B0FC
:1005300000BD0EB540F2334102910021CDE900111A
:100540000A460B4600F08DF803B000BD70B5C1F34C
:100550000A5201F000450024C1F3130140F2FF33B9
:1005600041F480119A4201DA002070BD40F2334319
:100570009A42A2F2334203DC524200F041F800E01A
:1005800090402C43F1D0404270BDC1F30A5210B5E7
:10059000C1F3130140F2FF3341F480119A4201DAB2
:1005A000002010BD40F233439A42A2F2334203DCF2
:1005B000524200F025F810BD904010BD00F00042FE
:1005C00030F000400AD0C10D01F56071C0F3160093
:1005D00042EA0151C208400711437047002001461A
:1005E0007047202A04DB203A00FA02F1002070470D
:1005F0009140C2F1200320FA03F319439040704761
:10060000202A04DB203A21FA02F00021704721FA67
:1006100002F3D040C2F120029140084319467047CE
:10062000202A06DBCB17203A41FA02F043EAE073B6
:1006300006E041FA02F3D040C2F1200291400843A3
:100640001946704710B5141E73F1000408DA401CF7
:1006500041F1000192185B411A4301D120F00100E1
:1006600010BD2DE9F04D92469B4611B1B1FA81F2D1
:1006700002E0B0FA80F220329046FFF7B2FF044663
:100680000F4640EA0A0041EA0B0153465A46084326
:1006900013D0114653EA010019D0C8F14002504668
:1006A000FFF7AEFF05460E46504659464246FFF755
:1006B00098FF084305D0012004E020463946BDE8F4
:1006C000F08D0020054346EAE0762C4337430A9834
:1006D0006305E40AA0EB08000022FD0A44EA47543F
:1006E0000A3002D500200146E9E7010510196941E9
:1006F000DDE9084500196941BDE8F04DA2E72DE9A3
:10070000F04D81EA030404F0004B21F0004514464B
:100710004FF0000A23F0004150EA050220D054EACD
:1007200001021DD0C5F30A570246C5F31303C1F3F6
:100730001300C1F30A5640F4801543F48013A7EB6D
:100740000608101BD64608F2FD3873EB050002D3ED
:1007500008F1010801E092185B41B8F1000F03DADB
:1007600000200146BDE8F08D00204FF480110646C0
:1007700084460EE0171B73EB050705D3121B63EBD2
:10078000050306434CEA010C49084FEA3000921871
:100790005B4150EA0107EDD152EA030012D082EA30
:1007A000040083EA0501084305D0101BAB4106D2C3
:1007B0000122002306E000224FF0004302E06FF028
:1007C000010253101AEB06004CEB085110EB0A0023
:1007D00041EB0B01BDE8F04DFFF734BF30B5041E0F
:1007E00071F1000404DB4FF00044404264EB01016E
:1007F000141E73F1000405DB1C464FF00043524207
:1008000063EB0403994208BF904230BD064C074D8C
:1008100006E0E06840F0010394E8070098471034D0
:10082000AC42F6D3FFF7C6FC8CEC0208ACEC020835
:1008300070B58C1810F8015B15F0070301D110F8A2
:10084000013B2A1106D110F8012B03E010F8016BCF
:1008500001F8016B5B1EF9D12B0705D40023521E52
:100860000DD401F8013BFAE710F8013BCB1A921CBA
:1008700003E013F8015B01F8015B521EF9D5A142B8
:10088000D8D3002070BD0000EFF3098141B1F1EE33
:10089000101A40F8041D20ED200A24490A6810604F
:1008A0007047B0EC200A02C8E1EE101A20490A682D
:1008B000106070471F484FF0FF010170002080F367
:1008C00009881D48016881F308881C484FF0805151
:1008D000016062B6FEE719484FF080510160704731
:1008E00016484FF080510160704772B6EFF30980EF
:1008F00028B1203880E8F00F0C490968086000B57D
:100900000F4880475DF804EB0E480F490A780270E3
:10091000064807490A680260106890E8F00F203026
:1009200080F309884EF0F40E62B670470C02002086
:100930001002002022ED00E01402002004ED00E08F
:10094000D59500088E0100208F01002000298168C4
:1009500014BF41F0010121F00101816070470000E6
:100960000849D1F80423084B1A40D0E9003C43EA77
:100970000C03D0E902C04CEA000018431043C1F850
:100980000403704700200140E030FCFFC06C80B2DF
:1009900070470246002012680A4218BF01207047C3
:1009A00010B5144C072301221221204600F082F8D2
:1009B000204600F0C8F802212046FFF7EAFF002891
:1009C000F9D02046FFF7E2FF00EE100ADFED0A0A39
:1009D000B8EE400A20EE200ADFED080A30EE600A89
:1009E000DFED070A80EE201AB3EE090A31EE000AA5
:1009F00010BD0000002001402E56543A5C8F423F4B
:100A00000AD7233B10B4426891F804C022F48072E4
:100A100022F040720B6842EA0C221A43426082685C
:100A20000C4B4C791A40D1E903C343EA0C03D1F8CB
:100A300008C04CEA440C43EA0C031A438260C26AC1
:100A4000097D22F47002491EC9B242EA0151C16215
:100A500010BC7047FDF7FFC010B501218AB00846F1
:100A60000AF0E4F8012108020AF004F900244FF426
:100A70004030CDE90640089406A80994FFF770FFBE
:100A800001208DF814008DF804408DF80540009485
:100A900004940294064C69462046FFF7B3FF0120F8
:100AA00000F056F801212046FFF750FF0AB010BDB4
:100AB0000020014030B4072409290DD9C568A1F1EF
:100AC0000A0C0CEB4C0C04FA0CF425EA040403FAAF
:100AD0000CF32343C3600AE0056901EB410C04FAFF
:100AE0000CF425EA040403FA0CF3234303611F23E7
:100AF000072A0CD2D0F834C0521E02EB8202934077
:100B00002CEA030391401943416330BC70470D2A1E
:100B10000CD2D0F830C0D21F02EB820293402CEAF4
:100B2000030391401943016330BC7047D0F82CC0D7
:100B30000D3A02EB820293402CEA030391401943E1
:100B4000C16230BC7047816841F08041816070476C
:100B500005490028D1F8040314BF40F4000020F434
:100B60000000C1F8040370470020014000000000AD
:100B70002DED0A8B82B0042002F0BEF80CF046FA8C
:100B80004D490CF01EFF4D4800F0A9FC4C480BF0FD
:100B9000EFF84C4800F02EFC4B4C0021204600F0B2
:100BA0002FFC0121204600F02BFC46480BF0DEFA1A
:100BB000464CA0690BF0E0FA0CF028FA98224FF4AA
:100BC000FF71CDE900120346414A0421414802F079
:100BD000D9FA04F124059FED408B9FED419B9FEDD9
:100BE00042AB434E9FED44BBA0636078A1780843BD
:100BF0002178084353D142490AF0DAF9A878FFF77F
:100C000098FC53EC182BFFF711FC53EC192BFFF752
:100C10000AFC41EC100B13F0EFFDB0EE40CAF0EE11
:100C200060CA2069FFF774FC53EC1C2BFFF7FEFB36
:100C300053EC1A2BFFF753FBFFF788FC7060A87882
:100C4000FFF777FC53EC182BFFF7F0FB53EC192B55
:100C5000FFF7E9FB41EC100B13F0BEFEB0EE40CA0B
:100C6000F0EE60CA2069FFF753FC53EC1C2BFFF732
:100C7000DDFB53EC1B2BFFF7D6FBFFF767FCB060E7
:100C8000FFF78EFEBCEEC00A10EE100AE0800CF0FA
:100C9000BDF91C490CF0B8FCC72002F0C1FBE0789C
:100CA00018B11949606B0CF0AFFC012002F0B8FBE1
:100CB0009BE7000000000000695701087400002055
:100CC00080000020E0B60208C9C9C9000000002069
:100CD00035560108CC850208AF25E4839ECDBA3F86
:100CE000A7E8482EFF21F93F0000000000E06A401D
:100CF00060630020000000000000000000006E4063
:100D000024000020420000206A000020002800DCAF
:100D1000404270470000000070B5474C2DED068B37
:100D2000251FB1F5987F65D0A1F58071313972D05A
:100D300001291CBFBDEC068B70BD4FF499710CF0FE
:100D40007BF90AF070FFC0B2A070FFF7F2FB9FEDD5
:100D50003C8B53EC182BFFF769FB9FED3B9B53EC4F
:100D6000192BFFF760FB41EC100B13F045FD384DDC
:100D7000B0EE40AAF0EE60AA2869FFF7C9FB53EC79
:100D80001A2BFFF753FB9FED341B53EC112BFFF78E
:100D9000A6FAFFF7DBFB324E7060A078FFF7C9FBC5
:100DA00053EC182BFFF742FB53EC192BFFF73BFBDF
:100DB00041EC100B13F010FEB0EE408AF0EE608AAA
:100DC0002869FFF7A5FB53EC182BFFF72FFB9FEDCE
:100DD000261B53EC112BFFF726FBFFF7B7FBB06088
:100DE0000CF014F9BDEC068B05F14201BDE8704032
:100DF0000CF00ABC4FF498710CF01EF90AF013FFC6
:100E0000207028700CF002F9BDEC068BBDE8704034
:100E100017490CF0F9BB40F231110CF00DF90AF052
:100E200002FF60700CF0F2F812490CF0EDFB6078F4
:100E30006870BDEC068B70BD28000020000000002B
:100E4000AF25E4839ECDBA3FA7E8482EFF21F93FA6
:100E500000000020000000000000000000E06A40E8
:100E600060630020000000000000000000006E40F1
:100E70004A00002052000020F8B546684FF49871EF
:100E800030460CF0D9F831498A6809680AF0FEFE4C
:100E90004FF4987130460CF0CFF82D4D29780AF0B8
:100EA0003FFF4FF4987130460CF0C6F829490AF01C
:100EB0000FFF40F2311130460CF0BEF805F18C0402
:100EC000A26821680AF0E2FE40F2311130460CF0CF
:100ED000B3F869780AF024FF40F2311130460CF083
:100EE000ABF81C490AF0F4FE4FF4997130460CF04F
:100EF000A3F8A26821680AF0C9FE4FF49971304640
:100F00000CF09AF8A9780AF00BFF4FF4997130466B
:100F10000CF092F80F490AF0DBFE4FF4B87130463E
:100F20000CF08AF80321009102230B4A002100F003
:100F300051FA40F2711130460CF07EF802210B4656
:100F40000091064A002100F045FAF8BD9400002007
:100F500024000020411B0008F8E601081C0E0208CE
:100F600070B51C4C4668E06903F0A2FD02F0C8F8B9
:100F7000194803F0D1FDE06903F09AFD206A03F0FF
:100F8000A2FD04F13C050223A8789122B12102F0D0
:100F90008FFA91224FF487713A2002F075FAE878BF
:100FA0000223912240F2311102F082FAE06840F20D
:100FB00071110028304606D00CF03EF8BDE87040B4
:100FC00006A100F03FBA0CF037F8BDE8704006A16A
:100FD00000F038BA0000002090CB0208202020202A
:100FE000204F46460000000020202020204F4E00C9
:100FF00000B585B0684609F049FE019805B000BD0E
:1010000038B545680446014628460BF0ECFB00283D
:101010002BD02068304A11280DD006DC0B2825D0B3
:101020000E2833D00F2852D112E0282849D0B0F52D
:10103000107F4CD108E09268002A16D0214628463D
:1010400001B0BDE830401047214628465268F7E716
:10105000284601F05BFF0090406E0468684601F08E
:1010600085FF002C01D02846A04738BD284601F056
:101070004DFF0090683001F09FFE009803216C3016
:1010800001F0A8FE684601F071FF20E0E1684868C1
:1010900009680D2902D0202913D105E0002810DDB0
:1010A000284611F013FD06E0002804DD2846BDE8BF
:1010B000384011F00BBD2846BDE83840022111F040
:1010C0001BBDE06818B90021284600F0A3F92046AE
:1010D000BDE838400BF060BE3C030020F0B504468C
:1010E00085B08069B4F90850668A0027CDE90265A9
:1010F000CDE900170490B4F90C00B4F91060C118E0
:10110000B4F90A00B4F90E50104433462A4600F0F0
:1011100007F80546616800F095F905B02846F0BD6E
:101120002DE9F04F85B01F46DDE911B4DDE90E561B
:1011300090468946824602F0C7FE16484C34CDE9F7
:101140000204CDE900563B464246494650460BF064
:101150006BFD040018D001F0D9FE1022594604900E
:101160000BF026FC049830220B493430FFF768F866
:10117000094D04990C3D2868486604A801F0F6FE64
:10118000286841682046884703F02CFF05B02046B8
:10119000BDE8F08F0110000848030020F0B50446B8
:1011A00080688B4989B051F82050606800287DD054
:1011B000052804D006287AD0122879D1AEE0E86953
:1011C00000284FD095E80E008DE80F0004F11001C3
:1011D0000FC904F0FBFA002655F8260003F073FC53
:1011E000A169E8690A1A216901446069304402F082
:1011F000CFFBA169E8690A1A21690144E069801BF3
:1012000002F0C6FBE169E8690A1A616901442069D4
:10121000304402F04DFCE169E8690A1A6169014451
:10122000A069801B02F044FC761C022ED4DBA86867
:1012300003F049FCE069E9696669431A20694218CC
:101240003144801C521E02F08FFCE169E869A269FA
:101250000B1A61690144101A401C921E02F084FCB2
:10126000EE6913E05FF0000655F8260003F02BFC52
:10127000E069831BA069821B606981192069304481
:1012800002F0D6FB761C022EEEDB0226D5E9030126
:10129000CDE900016169E06908444310A069891C37
:1012A000821B2069304402F037FB02E089E012E043
:1012B0008AE0D5E90501CDE90001E3696069012112
:1012C000184401EB6001A0699B1E821B2069304419
:1012D00002F022FB78E0206801F018FE04902068FC
:1012E0000CF092FF40B1A06808B1002008E004981B
:1012F000006F28B1012003E00498406F00B1022084
:10130000049901EB8000C56E04A801F02FFE0023B4
:101310001A462846216802F06DF855E0206801F071
:10132000F5FD0490866EEEB3B0F95C70A168D1B3A0
:10133000032942D05FF0000100EB8101406D0C6C8D
:1013400003F0EAFB204603F0BEFB05A802F0CEFC4A
:10135000BDF81410A88B0144ADF81410BDF8181096
:10136000081AADF81800BDF81600801CADF816007C
:10137000BDF81A00801EADF81A000498B0F960207C
:10138000B0F95E1005A803F099FA04A801F0EEFD8B
:10139000022003F045FC304601F0B8FD3A4605A9AD
:1013A000079001E00BE006E002F03EF90DF11C00B1
:1013B00001F0DCFD08E00121BEE70221BCE704A842
:1013C000F6E720680CF0C4FB09B00020F0BD000077
:1013D000B4CB020870B516460C4605461946304691
:1013E000049A01F0E7FF024621462846BDE8704016
:1013F00000F055B80149086270470000480300201A
:10140000032903D2024A02EB8101C8607047000041
:10141000480300204FF480720029114601D00BF0E0
:1014200076BA0BF0C7B90000042907D2044A52F873
:101430002130014620221846FEF702BF7047000007
:10144000B4CB02082DE9FF410E4605004FF0010420
:1014500021D002F039FD284601F058FD0190876E39
:1014600001A8009701F082FD3146684604F0A4FC13
:1014700078B100980024B84208D0284601F046FD13
:1014800001900099816601A801F070FD28460CF0DA
:10149000FBF803F0A7FD04B02046BDE8F081F8B5E5
:1014A00015460C46060018D002F00EFD304601F03D
:1014B0002DFD0090032C0BD200EB84006C3001F06A
:1014C0007BFC009800EB8400C56630460CF0DCF82D
:1014D000684601F04BFD03F085FDF8BDFEE770B5F1
:1014E000446888B006460025009401940294039451
:1014F0000494059406943068079015B1012D0BD023
:101500000EE002216846FFF78FFF01216846FFF7D2
:101510008BFF0125B468E7E700216846FFF784FFE9
:101520006D1C022DE0DB08B070BD00007CB5214CC5
:101530000546216831F8220F4A8D104408804888FA
:10154000CA8D10444880284602F0AAFB2168498CC5
:10155000ADF800104618284604F0BCFA3044401E8E
:10156000ADF8040002F006FC2168898CADF8021089
:101570000844401EADF8060068460CF0D1FC04E0BB
:10158000284600F02DFC0CF071FC0028F8D10A2D43
:1015900004D0BDF804002168401C4884206830F85D
:1015A000221F428D891A01804188C28D891A41808B
:1015B0007CBD0000A8020020084910B5002008608A
:1015C00000F016F8FEF726FE04461021044806F047
:1015D00063FD2046BDE81040FEF720BE4401002018
:1015E000FCF9002001490860704700004401002018
:1015F00000B585B0684609F049FB094901980A68B9
:1016000042F080720A60074900224A600A6842F08C
:1016100001020A6005B05DF804EBFFF7E3BF0000CC
:10162000FCED00E0001000E0014840687047000059
:10163000001000E02DE9F05F04461B4891461B4A6C
:1016400050F82460001D52F8242050F824504FF028
:10165000000B06FB05F05043154ADA4652F82420E9
:1016600000FB012800FB0927204604F0FFFC01468F
:1016700010484FF400720260C0F80C80C763C0F8D5
:1016800010B0C0F840A0C16166F31F454564016811
:1016900041F001010160016811F0010FFBD1064822
:1016A00040F82490BDE8F09F300100203801002070
:1016B0002401002000B002402C0100202DE9F04759
:1016C000DFF880C0204F089E5CF820C057F82070DB
:1016D00002FB0C110CFB07F91C4FDDE9095457F80C
:1016E000208009FB08F7DFF8689059F820A009F17D
:1016F000080959F8209007FB09A901FB089706FB88
:101700000C3101FB0896ACEB05094FF0000804F022
:10171000ADFC10494FF400720A60CF60CE63C1F88F
:101720001090C1F84080C86165F31F444C6408689C
:1017300040F001000860086810F0010FFBD1BDE81F
:10174000F087000030010020340100203801002023
:101750002401002000B002402DE9F0471D46DDE9DC
:10176000086917468846044602F0EAFA012839D08B
:10177000A5EB0800451CF01B461C2348DFF894C06D
:1017800050F82410001D5CF824C050F8240001FB20
:1017900000F31E4850F8242003FB02F01C4B53F8C2
:1017A000243000FB0C3007FB018303FB02072046BB
:1017B000A1EB050804F05AFC1849174A0A60C1F861
:1017C0003890CF63C1F84080486365F31F464E648C
:1017D000086840F001000860086810F0010FFBD1B4
:1017E000BDE8F08700221921204605F037FE334678
:1017F0002A463946404605F0C7F82046BDE8F0477E
:10180000074A192105F02ABE3001002038010020C6
:10181000240100202C0100200002030000B002403F
:101820005917000808B54FF0030CCDF800C000F0C0
:101830005FF808BD08B54FF0040CCDF800C000F00B
:1018400057F808BD08B54FF0020CCDF800C000F005
:101850004FF808BD08B54FF0000CCDF800C000F0FF
:1018600047F808BD08B54FF0000CCDF800C000F0F7
:101870003FF808BD70B515460E461C461A46174976
:1018800004F094FD22461649304604F08FFD134BB8
:10189000154803F54852DFF84CC0A2F5C841C0F81E
:1018A00000C0C3604261C1630021016181610164C4
:1018B000C16141624163012141EA0441416401681F
:1018C00041F001010160016811F0010FFBD12246D6
:1018D0002946BDE87040054804F068BDFC9500202D
:1018E000FCC700200002020000B00240FC630020A0
:1018F00070B50D4614460E49049E04F094FD0D4843
:101900000B494FF481320260C160C563002101615F
:101910000164C1614663012141EA044141640168F7
:1019200041F001010160016811F0010FFBD170BDB0
:10193000FC63002000B0024030B4104B0E4C4FF45A
:101940008135DDF808C01D60D860DC6300201861B7
:101950001864C3F81CC05863012040EA0240586470
:10196000186840F001001860186810F0010FFBD1F2
:1019700030BC014804F057BDFC63002000B00240B9
:101980004FF07F4383B08B4304BF03B0704780F0B8
:101990007F40009081F07F40019013481149016021
:1019A000C0F80CD001A9416102A9C1634FF4803194
:1019B00041EA0261C161C2F1FF01090641620021F1
:1019C00041634FF001114164016841F00101016080
:1019D000016811F0010FFBD1029803B080F07F4045
:1019E000704700000002020000B002407047000093
:1019F0002DE9F041464C82B0204603F059F801F041
:101A00007FFB444803F05FF84FF4DC724FF4AF7390
:101A10008E21104601F0E8FF204603F049F84FF40C
:101A2000BE7340F2631264214B2001F077FB6FF02C
:101A30007F4003F048F88722F021D72001F0B4F866
:101A4000354F384603F03FF86E22F021D72001F0E1
:101A5000ABF8204603F037F84FF4B4710020CDE91D
:101A600000016E231A46F021D72001F069F82B4DB2
:101A7000E868002843D02A4803F025F8012108022D
:101A800009F0BEF9274804228168406801F08CF80B
:101A9000254803F041F8384603F00AF8DFF88C8057
:101AA000404603F010F8CD242246D2213A2001F01E
:101AB000EBFC1F4E022322463078A02101F0F8FCF7
:101AC000707802232246E02101F0F2FC4FF482728A
:101AD000A521184801F062FE174803F01DF83846AA
:101AE00002F0E6FF404602F0EEFFE88802B0022373
:101AF000BDE8F04140F20712DA2101F0D9BC0F48ED
:101B000002F0E1FF00214FF4807009F079F9B9E7A4
:101B10002C2C2C0079797900EFEFEF0000000020E9
:101B2000FD8434006063002048BD02083B3B3B005D
:101B300024000020988F0108989A02083366FF005D
:101B400010B50446406882B0132804D0204609F03E
:101B5000D5FF02B010BD0B48806902F0B4FF208AA7
:101B6000ADF80000A08AADF80200208BADF80400AB
:101B7000A08BADF80600684602F022F802B0002003
:101B800010BD0000B000002001490860704700004F
:101B9000143C0140837921490268002B34D00B6842
:101BA00023EA02020A60091D0A6803689A430A6070
:101BB000017901F1804101F59E310A6803681A43F9
:101BC0000A60174B19680268914319601A1D116861
:101BD000D0F800C021EA0C0111604179102908D029
:101BE00001F1804101F59E310A68006810430860E8
:101BF00070471968D0F800C041EA0C0119601168FB
:101C00000068084310607047007900F1804000F5DB
:101C10009E3001689143016070470000003C014024
:101C2000083C014000234FF02042102808BF506EAE
:101C30000CD0B0F5807F08BFD2F8840006D0B0F594
:101C4000805F0CBFD2F8A400D2F8580131EA00003E
:101C500008BF012318467047D0E90012114382687B
:101C60006FF01F03C06803EB421242EA40200843B2
:101C70004FF02041C1F85001704700002DE9F001FC
:101C800003689900A1F1C041D1F84011D0E9012CBD
:101C900042EA0C02D0E903C44CEA040C42EA0C020A
:101CA000D0F814C0C56942EA0C02D0F818C0046A22
:101CB00042EA0C022A43D0F824C022436FF30E01FB
:101CC00042EA0C020A434FF02041002B08BFC1F842
:101CD00040210FD0D1F840312C436FF30E034CEA72
:101CE00003032343C1F8403103689B00A3F1C043C1
:101CF000C3F840216FF0FF04250202686FF00F0C5B
:101D000023039AB39200A2F1C042D2F8482102F014
:101D10007046826AD2F8048017680CEB081C7F1E9C
:101D200047EA0C0C976804EB07244CEA040C148A6D
:101D300005EB04444CEA040CD1F848414CEA060C8B
:101D4000D568928A2D0303EB0252A5F5805504F065
:101D500070442A432243C1F8482100688000A0F162
:101D6000C040C0F848C1BDE8F0017047FFE7D1F8B6
:101D70004821806A02F07042476806680CEB071C35
:101D8000761E46EA0C0C866804EB06244CEA040C2A
:101D90000D4EC46806EB04344CEA040C048A05EBCF
:101DA00004444CEA040C848A007E03EB04534CEA9E
:101DB00003034FF07F4C0CEB006018431043C1F855
:101DC0004801BDE8F001704700F0FFFF4FF02041EF
:101DD000D1F8542142EA4000C1F854017047000094
:101DE00010B504460A2812D00D2C14D002F06CF85D
:101DF00009480068C06901682046884707480168AB
:101E000009B120468847BDE8104003F0EBB8BDE8B3
:101E1000104001F05FBB10BDA8020020D4020020DA
:101E20002DE9FF5F8346DDE90E45984691468A46D7
:101E30004FF0FF3601274FF4B47004F5B47405F584
:101E4000B47503E0A4F5B474A5F5B4758442F9DA69
:101E5000002D65DD5A2C11DA002C00DA00245A2DF1
:101E600001DA284600E05A20CDE90040CDE90276AB
:101E700043464A46514658460DF02EFA5A3C5A3DC2
:101E8000002D4DDD5A2C14DA002C00DA00245A2DD6
:101E900001DA284600E05A20C4F15A01C0F15A0084
:101EA0008DE8430043464A465146584603960DF096
:101EB00013FA5A3C5A3D002D32DD5A2C12DA002C0E
:101EC00000DA00245A2D01DA284600E05A200DF1EC
:101ED000040C00948CE8C10043464A4651465846DB
:101EE0000DF0FAF95A3C5A3D002D19DD5A2C14DA3E
:101EF000002C00DA00245A2D01DA284600E05A208E
:101F0000C4F15A01C0F15A008DE8830043464A46A5
:101F10005146584603970DF0DFF95A3C5A3D97E772
:101F2000BDE8FF9F2DE9F0430446C56887B09046A1
:101F30008946002002F0E4FD064625B1287910B15B
:101F400046F0020001E026F0020002F0D9FD20690F
:101F5000012558B1D4E902128DE826000395638863
:101F60002288046841464846A0471EE0124F134BA2
:101F7000214638681B68427CE068984730B9E088A1
:101F8000012801D0002001E03868806BA288E38836
:101F9000A1680095CDE90410CDE90232019563886E
:101FA00022884146484604F0CDFA07B03046BDE8E5
:101FB000F04302F0A5BD0000A8020020A00200200E
:101FC0001CB50024019401AC009400F0E7F81CBD9E
:101FD0002DE9FF4F83B0814606988A46A0EB0A0898
:101FE000109E00200090A2EB09043568934654EA45
:101FF000080018D02046FEF789FE07464046FEF747
:1020000085FE87420BDA2046444680464846D14644
:1020100082465846DDF818B0069001200090002C4A
:1020200007DD204606E007B04846BDE8F04F00F067
:102030003BB96042A0420AD04846D9466442C8F142
:10204000000883464FF0FF37DDF818A000E00127B5
:102050005148B8F1000F11D004EBD4714FEA610B75
:1020600001DACBF1000B4C480068807E88B3002F6A
:1020700002DA30682044306000257BE000990029B6
:10208000016821D0897E11B10027804615E007B094
:102090005A4649465046BDE8F04F04F04BBC28462E
:1020A0006D1C11F06FFA38B9D8F8000009EB070180
:1020B000406E4268504690477F1CA742EFDD6D1E80
:1020C000356007B0BDE8F08F8A7E1AB100278046E0
:1020D00017E019E0486E5A465146036807B0484673
:1020E000BDE8F04F184728466D1C11F04BFA38B97F
:1020F000D8F8001009EB0700496E4A68514690472E
:102100007F1CA742EFDDDAE700250FE008FB05B0F2
:1021100090FBF4F101EB0A00009951B11E4A09EB62
:1021200005011268526E526890476D1CA542EDDDA4
:10213000C7E7194909EB05030968496E4A68014672
:102140001846F1E708FB05B090FBF4F101EB0A003B
:10215000019030683844306011F014FA48B90098A2
:1021600090B10D4809EB05010068406E4268019886
:1021700090476D1CA542E5DD3068002F01DA204450
:102180003060C01B30609CE7034909EB050009681B
:10219000496E4A680199EBE7A80200202DE9FF4744
:1021A0000F4640491646804609680C981D460A7E2F
:1021B000012A1CD0A8EB0600791B50EA01031CD0B1
:1021C000A2F1010913F096F800F58060824603F051
:1021D0001CFF00FB09F4504603F01CFF00FB09F153
:1021E000002C0CDAC4F50070801240420AE0009026
:1021F000324639464046FFF7EBFEBDE8FF8704F55F
:102200000074A012002904DAC1F5007189124C4251
:1022100002E001F500718C12002804DD411C01EB85
:10222000D171491003E000EBD0714910401E00EB62
:10223000D0704210002C04DD601C00EBD070401008
:1022400003E004EBD4704010641E04EBD47308EB7D
:102250000104ADF800403C18ADF80240A8EB0204C0
:102260005B10B21AADF80440ADF808203144FC1AF6
:10227000EA1AADF80C102844ADF80A20ADF80E00AB
:102280000023ADF806401A460421684600F08CF899
:10229000394640460EF01AFE294630460EF016FE2C
:1022A000ABE70000A8020020064A13681A7E012A44
:1022B00005D0521E02EBD272521000F005B85A6ED1
:1022C00052681047A80200202DE9F05F06468846B4
:1022D00040F2C32002FB00F14FF47A7091FBF0F75B
:1022E00002FB02F102EBD27001EB600B1446B11855
:1022F000234A301B7F1C1268526E13680A464146FF
:102300009847012538E000BF05FB05F004FB0401F8
:1023100059451CDDBC4219DD194B06EB050AA6EB3D
:1023200005091B68AAF1010208EB04015B6E09F1C3
:1023300001001B689847124BAAF10102A8EB0401A7
:102340001B6809F101005B6E1B689847641E0C4B0B
:102350003219301B1B68924608EB05015B6E814603
:102360001B689847064B5246A8EB05011B68484678
:102370005B6E1B6898476D1CBD42C5DDBDE8F09FD4
:10238000A802002070B514460E4605460119001B30
:1023900000F0A6FC2246314628460FF067F9BDE85A
:1023A000704000F0F1BB00002DE9FF4F43F6FF74D1
:1023B0000F46664283B09B46814600210BE000BF7A
:1023C00009EB8100B0F90200A04200DA0446B042F5
:1023D00000DD0646491CB942F2DB674800684069E7
:1023E00000280DD0B0F906101A46A1EB0B01B1423E
:1023F00000DA0E46B0F90200801AA04200DD044661
:10240000B4E0DFF878A100200546CAF8000088E0B3
:10241000781E854201DA6B1C00E0002309EB850C75
:1024200009EB8302BCF90200B2F90210A04244D1C8
:10243000A14215D139F92330059A39F9251003EB5A
:10244000020C4D4A05981268084404EB0B01526EC9
:102450006045136801DA62462AE00246604627E0DA
:102460002846A4464FF000087A1E0BE008B1401E33
:1024700000E0781E09EB8003B3F90230634504D114
:1024800008F101089045F1DB2346A34248D01A1B0E
:1024900039F92500A1EB040C059B92EA0C0F09D435
:1024A000354A184404EB0B011268526E1368024659
:1024B000984735E00CF086F932E0A14230D001DBDC
:1024C000A04203DDA0422BDBA14229DCE04688428A
:1024D0000ADC0346A04223DC0846A14220DBB8F90F
:1024E00000C0B2F9001008E00B46A14218DCA0427F
:1024F00016DBB2F900C0B8F90010E21AA1EB0C012A
:1025000051430029A0EB030202DD01EB620102E06E
:10251000A1EB6201491CC01A91FBF0F06044C9E7CD
:102520006D1CBD42FFF674AF0598009004EB0B00E4
:10253000019000208046054613E01149B8F1000FD4
:1025400031F915A009D0009901EB0A0208440A49A3
:102550000968496E0B680199984788F00108504650
:102560006D1C064909688D42E7DB641CB4427FF7A5
:1025700048AF07B0BDE8F08FA8020020FC0400209F
:102580000C16012010B5002002F092FA6FF07F4087
:1025900002F099FA012002F025FB002002F030FB46
:1025A000002002F03DFB002002F0AAFA0448006877
:1025B00002F0B2FABDE81040002002F0E5BA0000D7
:1025C000A40200202DE9F001002201255FF003069E
:1025D000D1F800C005FA02F30CEA030C9C4533D194
:1025E00007684FEA420C06FA0CF4A74307600F791C
:1025F000D0F8008007FA0CF747EA080707600F7960
:10260000012F18BF022F14D18768A74387604F7925
:10261000D0F8088007FA0CF747EA08078760476890
:1026200027EA0303436043688F799740BFB23B4377
:102630004360C368A343C360CB7903FA0CF3D0F8BB
:102640000CC043EA0C03C360521C102AC0D3BDE87F
:10265000F00170474B07DB0E9A40C90800EB810080
:10266000016A4FF00F0C0CFA03F399430162016AFF
:102670001143016270470246002012690A4218BFE6
:102680000120704741837047018370472DE9F0476F
:1026900016460D460746002403F0CCFD03F0CAFDA4
:1026A000BA2003F003FE012807D1380A03F0FEFD2B
:1026B000012804BFF8B203F0F9FD03F0BBFDBB2015
:1026C00003F0F4FDDFF8D080344F01283BD1002423
:1026D000002D88BFA5F101090ED94C4504D1002079
:1026E00003F004FD305503E0012003F0FFFC3055FA
:1026F000601CC4B2AC42F0D34FF400514046FFF727
:10270000C1FF0320401EB0F1FF3FFBDC042138462F
:10271000FFF7B8FF0321491EB1F1FF3FFBDC4FF487
:1027200000514046FFF7B0FF0321491EB1F1FF3FC2
:10273000FBDC04213846FFF7A7FF0321491EB1F156
:10274000FF3FFBDC01244FF400514046FFF79AFFA6
:102750000421491EB1F1FF3FFBDC04213846FFF79D
:1027600091FF0320401EB0F1FF3FFBDC4FF400510E
:102770004046FFF789FF0320401EB0F1FF3FFBDC1E
:1027800004213846FFF780FF0320401EB0F1FF3FD1
:10279000FBDC2046BDE8F087000802400004024050
:1027A000014AC2E90001704754020020014AC2E90F
:1027B000000170475C020020014AC2E90001704735
:1027C00018030020014AC2E900017047640200209A
:1027D000014AC2E900017047200300202DE9F04FB3
:1027E000DFF828B191B04FF0FF35DBF80030B3F9D6
:1027F00022100691DE69B3F92490F469A18981421F
:1028000006D8E289824203D3471AD4F8008012E046
:10281000D4E9018100296FD00A8882426CD84D88A2
:10282000854269D3801A82B2486800EB8200B0F911
:102830000070B0F90250781C5ED0307EA17C10FB95
:1028400001FA217CCDE90701B3F92A60304604F092
:102850001BFEC0B20E90DBF8000007FB0A81A37CD0
:10286000826B0127CDE90412CDE90273C069089A91
:10287000C17E807ECDE90001DDE90603494603F013
:1028800061FE681C18D046F0020004F0FDFDDBF884
:102890000000A37C05FB0A81826BCDE90273CDE9C0
:1028A0000412C069089AC17E807ECDE90001DDE98D
:1028B0000603494603F046FEDBF800005D46C069AA
:1028C000417E007E814214D9022E12D086F004008F
:1028D00004F0DAFD2868C069027EC37E12FB039112
:1028E000437E857E089A06984B4412FB050204F04D
:1028F0004BF80E9804F0C8FDDBF80000627C418CB8
:102900001144418411B0BDE8F08F0000A8020020FE
:1029100004480068C069C06909B1027C0A60407C53
:1029200070470000A8020020022008807047C0699C
:1029300082898A4202D8C2898A4210D2806880B1D4
:1029400002888A420DD843888B420AD3406800EB44
:102950008100A0EB8200B0F90000002801DB01201B
:1029600070470020704700002DE9F043304C0346CB
:1029700087B020681946B0F92A60C069C06900F0C4
:1029800086F8002850D041680088181A01EBC0056D
:102990003046AF7804F078FD814620686A680123EC
:1029A000816BCDE90237CDE90421C169CB7E8A7EF6
:1029B000CDE900230B7EB0F924102A78B0F922006B
:1029C00003F0C0FD2068C069417E027E91421FD99C
:1029D000C07E11FB00F812FB00F7022E18D001F0A8
:1029E0008AF9064601F050F902F06DF821682A785C
:1029F000CB69B1F92200DB7E12FB0302B1F924108E
:102A000001EB0803394403F0BFFF304602F05BF8E6
:102A1000484604F039FD20686A78C369B0F922108D
:102A20009B7E12FB0311418407B0BDE8F0830000D8
:102A3000A802002030B50F4C05460B4620682946F9
:102A4000C069C06900F023F8002812D041680088EE
:102A500024682A1A0120E46900EBC200085CA47E05
:102A600010FB04F0002B04D011F8321011FB04F11C
:102A7000196030BDA802002001200880704700B511
:102A8000C06900F004F8002800D0012000BD06E075
:102A900002888A4202D842888A4202D2806800288C
:102AA000F6D1704770B50025124C19E02069124923
:102AB000C5EB051600EBC60070220968001DFDF786
:102AC000BFFB2069002140F8361000EBC60000F182
:102AD0000C018161011D0A1DC0E90F126D1C4164CA
:102AE000A0688542E2DB01F0EFF9BDE8704002F03A
:102AF00079BA000030050020A802002070B50F4907
:102B00000D480860084603F017F90C4C143CA06807
:102B1000C0EB0010C500284600F06AF92A460021E3
:102B2000206103F0F4F94FF0FF30206002F0ACFABE
:102B3000BDE870400FF0E4BB192C010844050020EB
:102B40002DE9FC479846DDE90A7691460C46054694
:102B500001F0BAF90BF0AAF905440BF0B5F90444F9
:102B600000200BF0DDF909E0CDE9007643464A4646
:102B7000214628460CF014FD0BF078F90028F3D11B
:102B8000BDE8FC4702F02EBA10B50FF0D3F80448A8
:102B9000016A04480068416600F10801416110BD06
:102BA00018020020A80200207CB514460D460646F7
:102BB00001F08AF90BF07AF906440BF085F9054427
:102BC0001648006890F8691021B990F868104E43D3
:102BD0004D434C43301B00F023F8ADF80000301992
:102BE00000F01EF8ADF80400281B00F019F8ADF84D
:102BF0000200281900F014F8ADF8060068460BF042
:102C00008FF906E0224629463046FFF7BBFB0BF062
:102C10002DF90028F6D102F0E5F97CBDA8020020CC
:102C20000449096891F8681009B190FBF1F000B20D
:102C300070470000A80200202DE9F041224C054613
:102C40000E462068002788B920480068E06110B966
:102C500004F0C2F8E06100F0CBF8206080B31A49BC
:102C60001B4824310860084603F066F819480068DC
:102C7000854200DA0546E169731B4A1E20469342ED
:102C800001DD6E18761EAE4201DA2E460127124C87
:102C90002268516E4B68836301620B490F4B3431DC
:102CA0000B60516602C880E862000BF0C7FE0BF0B3
:102CB00081FE054821682C3048613846BDE8F08126
:102CC000FFE70127D2E7000018020020D802002009
:102CD000352B0108DC020020A8020020B90D0108F4
:102CE000044A126892F8682090FBF2F091FBF2F12E
:102CF000FFF7A2BFA80200200249096881F8680016
:102D00000BF058BEA802002010B5040009D001F055
:102D1000DBF820460BF0B8FD044602F063F92046CC
:102D200010BD002010BD38B5054601F0CDF828468D
:102D3000FFF7EAFF040009D000F0E8F82A46002176
:102D4000009003F0E4F8684600F010F902F04AF948
:102D5000204638BD024A106021F0030050607047E1
:102D60006C15012010B5040016D001F0ADF80B4829
:102D7000406B10F8341059B1022909D2042101EB3B
:102D8000C401415848680BF039FD204610F0E8F9BD
:102D9000BDE8104002F026B910BD0000AC140120BF
:102DA000002805D0034AD16B016001B14860D063AF
:102DB00070470000AC14012010B5044601F084F8FF
:102DC0002068FFF7CFFF00202060BDE8104002F030
:102DD00009B9000070B50D460646002405E000BFA5
:102DE00006EB8400FFF7E8FF641CAC42F8DB70BD23
:102DF0002DE9F04104460FF04DFD2848E41C24F075
:102E00000305016C2D1DA94200D90D46C46B13E0CA
:102E100054F8042CAA420ED184B1216809B1626829
:102E20004A60616809B122680A60C26BA24231D16E
:102E30002168C1632EE02468002CE9D18046816BB3
:102E4000C0680F1857F8040C3E1A306838B10020DB
:102E500010F008FA57F8040C3E1A3068D0B97068C0
:102E6000A84217DB3044441B3046241D10F0B2F951
:102E7000D8F80C10491BC8F80C10D8F814102944C5
:102E8000C8F814107068401B02D031460BF0B6FC35
:102E900044F8045C2046BDE8F0810000AC14012039
:102EA00010B500240FF0F6FC0C490F2001EBC00216
:102EB000526C1AB101EBC000406C08E0401EF5D521
:102EC00008E04168A14200D90C46806810B18068D2
:102ED0000028F6D1A4F10C0010BD0000AC140120B4
:102EE000002138B10449042202EBC000496B0858A4
:102EF00041680C3908467047AC14012002488169CA
:102F0000491C816170470000AC1401200549CA6961
:102F1000521CCA61496B01EBC0010A78521C0A704D
:102F200000F03CB8AC14012010B500F0CDFFFFF765
:102F3000B7FF64220849B0F5800F04D990FBF2F482
:102F4000086A444303E0096A4143B1FBF2F402F02A
:102F500049F8204610BD0000AC14012002488169E8
:102F6000491E816170470000AC1401200A490268C3
:102F70004B6B52F8082C03EBC2021378022B03D3DD
:102F8000CB690BB15B1ECB611178491E117000211A
:102F90000160084670470000AC140120002806D0EC
:102FA0000349042202EBC000496B085808307047FF
:102FB000AC140120F0B52D271C68B0F1004F08D0EB
:102FC000002600280DDA651C1D6027704042012490
:102FD00008E0651C01261D606FF000402770491E47
:102FE00001E00024091BC9B22AB3491EC9B222E07C
:102FF0000C46491EC9B2944205D1124C27781C6870
:10300000651C1D602770104C54F8215090FBF5F49E
:10301000E4B20A2C11D804FB150011B90EB1641CDE
:10302000E4B20A2C02D10124491CC9B21D686F1CEC
:1030300030341F602C700029DAD119680020087024
:10304000F0BD00009C02002054CF020870B5144669
:103050000D46064600F038FF204600F059FE0300FA
:10306000174804EB840109D050F8210041688068BA
:10307000711A2A1A184601F077FD1CE000EB810452
:10308000A268B24201D0012200E00022E368AB4214
:1030900001D0012300E000231A430CD0236943B17F
:1030A00050F82100816840686A1A311A184601F008
:1030B000BFFCC4E90265BDE8704001F093BF0000A9
:1030C000D016012010B5C2B2CBB2D21A00D55242EE
:1030D00093B25B43C0F30722C1F30724121B00D550
:1030E0005242000C92B2A0EB114002FB023200B23D
:1030F000002801DA404200B280B200FB002010BD7F
:1031000010B50021084600F099FE43F6FF725042C8
:10311000BDE8104013460146AFF300802DE9FC41A5
:103120001C4615460E46074600F0CEFE042004F06D
:10313000ABF980461248C068C16C006D0F4406446C
:103140000D440444ADF80070ADF80450ADF80260D1
:10315000ADF8064068460AF0E3FE07E023462A463B
:103160003146384603F010FC0AF080FE0028F5D105
:10317000404604F089F901F035FFBDE8FC8100000C
:103180009C0200202DE9F8431C00DDE90898164652
:103190000F46054602D109F039FF044600962E6815
:1031A00043464A4621462846B047060039D009F032
:1031B00022FF8146698A304609F0A9FB30460AF0B1
:1031C0001FFD48460AF01CFD4FF000080CE000BF50
:1031D000CDF8008055F81CCF00231A4649462846F2
:1031E000E04700B30AF00CFD7F1E002FF0DC1D212C
:1031F00048460AF0C6FB601C12D000F065FE09F0DC
:1032000039FF30B1FFF7CAFE8469B44201D0200013
:10321000F8D1B44202D030460AF068FC01F0E2FE78
:103220003046BDE8F883304609F0EEFD0020F8E7AF
:103230002DE9F0411C4616460D460746022B02DBDF
:103240000020BDE8F0811C20FFF7D2FD0028F8D057
:103250000DB105610AE0094A52F8241009B905E0E8
:1032600011460A68002AFBD10969016184618682DE
:10327000002101604160C0E90217E2E7C0020020BE
:1032800070B51D46FFF7D4FF040009D000F00EF81A
:10329000E068006820B90348006800EB8500846599
:1032A000204670BDA8020020FFF77ABD70B590B32C
:1032B0008269022A30DA1E4C54F8221019B944F8F7
:1032C000220032E019464B68002BFBD106E0CB68A8
:1032D000C5681B682D68AB4203DD09680029F6D17B
:1032E0001AE0C1B1CB68C6681B683668B3420CD11E
:1032F000838A012B05D008E01946DB681B68AB42C6
:1033000003DB0B68002BF7D129B14B6833B1186090
:103310004A68426004E0FFE7012070BD44F82200E3
:103320004860884200D100210160002070BD00008B
:10333000C002002010B503E00468FFF7B7FF204685
:103340000028F9D110BD10F08FBD00002DE9F0412B
:103350000026DFF834800D4F354600BF58F8254071
:1033600009E0E0680068385C20B1204610F07CFD80
:10337000266026462468002CF3D16D1C022DEDDB5F
:103380003046BDE8F0810000C0020020308702080E
:10339000022801DB00207047054951F8200004E0B5
:1033A000C16809680029F6D000680028F8D1704784
:1033B000C0020020F8B516460F4605004FF0000485
:1033C00014D00C20FFF7AFFC04000FD000F07CFD00
:1033D0002046FFF79BFD06490090C0E900150781D4
:1033E00046816846FFF7C2FD01F0FCFD2046F8BDAE
:1033F0009CE002082DE9F8431D4616468846040065
:103400000CD0FFF783FD0090006807686846FFF75F
:10341000ADFD2B46324641462046B847BDE8F8830D
:103420002DE9F041044601F01BFE06191EE000BF25
:1034300000F078FB052F00DD052700F045FD114861
:103440000568FFF75BFD2C0017D000BF01F0CAFD37
:10345000641EFBD1384601F0EDFD1DB100F034FDD6
:103460006D1EFBD1FFF77AFD01F0BCFD01F0F8FD08
:10347000371A002FDCDCBDE8F081384601F0DAFDB8
:10348000F0E700003C05002070B514460D460646E6
:1034900000F01AFD0548016830464D848C84FEF723
:1034A00045F8BDE8704001F09DBD0000A802002075
:1034B0007FB51E4614460D46CDF80CD003AB002256
:1034C0003146FFF777FD22462946684600F098F816
:1034D0007FBD000010B500F0F7FC00F03DFC054991
:1034E00009688A8C10448884088C4884BDE81040A0
:1034F00001F078BDA80200202DE9FC4706005FD04E
:1035000000F0E2FC00F028FC3C4C81462068B0F959
:10351000228000F065FC216807468A8CD01B8884D5
:1035200041E000BF47F6FF71304602F0A9FA82463B
:103530000146304602F07AFA2168054691F82C00DF
:1035400000F00300012841D002283BD000204A8C23
:10355000101A4884ADF800006A1E1044ADF804004B
:10356000888CADF80200A9F101010844ADF806000D
:103570006A465146304601F047FF2168BDF8020017
:1035800088845146304601F01BFC064430780A28F6
:103590001ED00D281CD0BDF80000216828444884A6
:1035A000307818B1761C30780028BBD12068818C27
:1035B00039448184818D21F00301818501F012FD60
:1035C000BDE8FC8705EBD5704010C0E72846BEE794
:1035D000206890F82C1001F0030101290BD002297A
:1035E00009D0018C418431780A29D9D1828C02EB2F
:1035F00009018184D4E7A0F82280F4E7A802002022
:1036000070B514460D46064600F05EFC054800689D
:10361000458484843046FFF76FFFBDE8704001F0B9
:10362000E1BC0000A802002047F6FF73AFF3008062
:103630002DE9FC411F4690460D4606004FF0000460
:103640001AD000F041FC65B128460AF0C9FA04001E
:1036500007D002462946684602F071FA68460AF029
:10366000BFFA3B4642462946304601F025FF204638
:103670000AF0B6FA01F0B6FCBDE8FC812DE9FF4F77
:1036800087B09046894607007DD000F01DFCD9F830
:103690000040D9F8045021B228B2401A401C0290D0
:1036A00000F05AFB064618F00C0F1ED038460A9A56
:1036B000029901F0A1FC08F00C01042904D00829AA
:1036C00002D00C2911D104E0291400FB1610401C73
:1036D00009E02114C1EB254200FB1620401C00EB41
:1036E000D07001EB600060F31F4448460AF078FA9E
:1036F0005FEA000B09D00246494604A8CDE904451B
:1037000002F01DFA04A80AF06BFAA6F1010A384685
:103710000A9A029902F0CAFB03900AEB244060F374
:103720001F45CDE900453846039902F07FF918F0AE
:1037300003010ED001292CD002290ED1B9F90420A1
:10374000B9F90010521A101A00EBD07001EB6000AA
:1037500001E0B9F80000ADF800006A463846039968
:1037600001F052FE38460A9A029902F095FB07448E
:1037700006EB244060F31F4438780028C7D1584630
:103780000AF02EFA00E001E001F02CFC0BB0BDE8DD
:10379000F08FB9F80410081A401CDCE77CB5144619
:1037A0000D46064600F090FB11480068C16C006DA4
:1037B0000D4404443188681E0844ADF80400ADF897
:1037C00000507188601E0844ADF80600ADF8024054
:1037D00068460AF0A5FB06E0224629463046FEF779
:1037E000A1FB0AF043FB0028F6D101F0FBFB7CBDF6
:1037F000A80200201CB50A460146684602F08EFA6F
:1038000000F062FB2548BDF80010006830F84C2F2E
:103810001144ADF80010BDF8021082881144ADF8D3
:103820000210BDF8041002881144ADF80410BDF870
:10383000061080880844ADF8060068460AF070FB60
:1038400027E000BFBDF900400BE000BFBDF902104A
:10385000204603F03BF8BDF90610204603F036F889
:10386000A41CBDF90400A042F0DABDF902400AE050
:10387000BDF90000214603F029F8BDF904002146F6
:1038800003F024F8A41CBDF90600A042F0DA0AF007
:10389000EDFA0028D6D101F0A5FB1CBDA80200203E
:1038A0002DE9F04F87B09B46DDE9109892460C4613
:1038B000054600F009FB16480168C86C096D4719F8
:1038C0000E1900EB0A0501EB0B04ADF81070ADF812
:1038D0001450ADF81260ADF8164004A80AF020FBB1
:1038E00088B1DFF830B04FF0000ACDE90098CDE99B
:1038F00002BA2B462246394630460DF09DF90AF0B1
:10390000B5FA0028F1D101F06DFB07B0BDE8F08FEA
:10391000A8020020356900082DE9F04F87B09B46CA
:10392000DDE9109892460C46054600F0CDFA16489F
:103930000168C86C096D47190E1900EB0A0501EB07
:103940000B04ADF81070ADF81450ADF81260ADF87E
:10395000164004A80AF0E4FA88B1DFF830B04FF05E
:10396000010ACDE90098CDE902BA23462A4631463C
:1039700038460DF061F90AF079FA0028F1D101F02A
:1039800031FB07B0BDE8F08FA80200207568000881
:103990002DE9FC4114460D46064600F095FA114FFC
:1039A0003968C86C096D054404440E44ADF80050F4
:1039B000ADF80440ADF80260ADF8066068460AF064
:1039C000AFFA08E0386822463146406E0368284660
:1039D00098470AF04BFA0028F4D101F003FBBDE848
:1039E000FC810000A80200202DE9F0411C4615468C
:1039F0000E46074600F068FA0C480168C86C096D6D
:103A0000074405440E440C4400200AF089FA07E0FC
:103A100023462A4631463846FEF7D2FA0AF026FAFD
:103A20000028F5D1BDE8F04101F0DCBAA802002081
:103A30002DE9FC411C4616460D46074600F044FAA7
:103A40001A480168087ECA6C096D17440D440C447D
:103A5000401E391A1644ADF800103118ADF80410A4
:103A6000291A2044ADF80600ADF8021068460AF0A5
:103A700057FA15E032462946384602F0FBFE324638
:103A80002146384602F0F6FE621E691C384602F0F6
:103A900051FF621E691C304602F04CFF0AF0E6F945
:103AA0000028E7D101F09EFABDE8FC81A8020020C1
:103AB0007CB514460D46064600F006FA0F4800682D
:103AC000C16C006D0E4405440444ADF80060ADF8CF
:103AD0000460ADF80250ADF8064068460AF020FADE
:103AE00006E022462946304602F024FF0AF0BEF9DD
:103AF0000028F6D101F076FA7CBD0000A802002073
:103B000070B50C46054600F00DF910B10121C0E971
:103B1000001400F0D9F928460AF02AF9BDE87040EF
:103B200001F060BA10B5002400E0012400F004F8B0
:103B30000028FAD1204610BD094810B500680024BD
:103B400010B1804700B1012409F0D4F900B101247B
:103B50000448006810B1804700B10124204610BD20
:103B6000CC020020C80200202DE9FC411C4615466D
:103B70000E46074600F0A8F910480068C16C006DB9
:103B80000F4406440D440444ADF80070ADF80450F1
:103B9000ADF80260ADF8064068460AF0C1F907E0EA
:103BA00023462A463146384602F0EEFE0AF05EF918
:103BB0000028F5D101F016FABDE8FC81A80200202A
:103BC000B0F90630B0F90420B0F90210B0F90000E5
:103BD000FFF7CABF08B50B46002805D000928188C0
:103BE0008268C08800F001F808BD10B50828029C62
:103BF00030D008DC04FB01F401280AD0022813D0DD
:103C0000042804D11CE0102828D020282CD0002023
:103C100010BD04EBD30003F00701105CC1F10701F4
:103C2000C84000F0010010BD04EB93000621105CB9
:103C300001EA4301C1F10601C84000F0030010BDD4
:103C400004EB5300D907105C02D000F00F0010BD48
:103C5000000910BD04FB0130105C10BD481004FBCE
:103C6000003032F8100010BD881004FB003052F80C
:103C7000200010BD034951F82000C1688A6A08215C
:103C800010470000C002002010B500F01DF903F03D
:103C900001F803F0E7F8044601F0A4F9204610BD4E
:103CA00010B5044600F010F9054800210068C0690D
:103CB000426820469047044601F094F9204610BD22
:103CC000A802002070B50C46054600F0FDF8064835
:103CD00021460068C069426828469047044601F0C2
:103CE00081F9204670BD0000A8020020002801D004
:103CF00009F05EB9704710B500F0E6F802F0D2FFA7
:103D000003F0B0F8044601F06DF9204610BD000044
:103D10000021022802D2024951F8201008467047BB
:103D2000100300201FB500210191029103912A2167
:103D30000091694609F016FE039804B010BD00001A
:103D400010B500F0C1F803480068047C01F04AF99E
:103D5000204610BDA802002010B500F0B5F80448B8
:103D60000068C069447E01F03DF9204610BD0000A6
:103D7000A802002010B500F0A7F801F04DFE04469F
:103D800001F030F9204610BD70B514460D460646C8
:103D900000F09AF822462946304603F001F810B1A7
:103DA000002028602060BDE8704001F01BB970B5AC
:103DB0000C46054600F088F82146284601F07CFEB6
:103DC000BDE8704001F00EB910B500F07DF8034871
:103DD0000068047E01F006F9204610BDA80200200C
:103DE00010B5002400F070F80B48006890F82C1013
:103DF00001F00C01042904D0082906D00C2907D1B0
:103E000003E0C069047E641E02E0C069007E4408CD
:103E100001F0E8F8204610BDA8020020024951F840
:103E20002000006900687047C0020020024951F874
:103E30002000006940687047C002002070B50D4640
:103E4000044600F041F820460EF0E8FA0446284601
:103E50000EF0ECFA044301F0C5F8204670BD0000F6
:103E6000134810B5016821F00101016011480121DA
:103E700081601149016000681049884200D0FEE766
:103E800001F0ECF90E492E20087001F0EFF80D4812
:103E90000EF0C8FC11F090FD04460021084600F029
:103EA00081FE09F047FBFEF7FDFD204610BD000036
:103EB000002000E000300240C2A507F4CDB5E8B50F
:103EC0009C0200207815012070B5184CE06820B1E4
:103ED00001F0BEF86168884204D001F0F1F801F009
:103EE000B7F86060E068401CE06001281CD10EF06B
:103EF00007FA05462068854216D0002813DBFFF735
:103F000025FA01462068C0EB0012206900EBC202CE
:103F10005167C5EB0511064A00EBC100011D116098
:103F2000406FFFF707FA256070BD000030050020E4
:103F3000A80200201CB5040004D10E480068046EDD
:103F4000002C16D0FFF7C0FF2046FEF7DFFF0090E1
:103F500044696846FFF70AF84CB12046FEF7D6FFE1
:103F6000019081688968884701A8FEF7FFFF01F08A
:103F700039F81CBDA802002001490A4600F002B829
:103F800001F0FFFF2DE9F04387B015460C465FEACC
:103F9000000846D0FFF798FF002000F0B1FD8146F1
:103FA00021480068066E4046FEF7B0FF00900068AA
:103FB000806900F065FD074640F6FF70C44204D1F9
:103FC0000098B0F90440B0F906500098611E0289CB
:103FD000ADF804401144ADF808104189681E08444A
:103FE000ADF80650ADF80A0008F0C6FD6846FEF7C9
:103FF000BDFF01A809F094FF06E02A46214640468D
:1040000000F070FB09F032FF0028F6D1384600F0CE
:1040100037FD304600F078F9484600F071FD00F0B9
:10402000E1FF07B0BDE8F083A80200202DE9FE4FB4
:10403000984691468A46834600270C9EFFF744FF28
:10404000174818490068407C51F82040E168096829
:10405000042903D02468002CF8D100E014B9FFF73C
:1040600097F904460121E068C26A2046904705009E
:1040700011D02469A0688047401C02D10A4C46F048
:1040800001060096CDE9015443464A46514658463A
:1040900000F0CEF9074600F0A5FF3846BDE8FE8FD8
:1040A000A8020020C002002014E2020838B5040073
:1040B0001CD0FFF709FF0E480068006EA04201D136
:1040C00000F0D0FC2046FEF721FF0090406908B1C7
:1040D00000F071FF00980068FFF7E6F86846FEF709
:1040E00045FF2046FEF73EFE00F07CFF38BD000095
:1040F000A80200202DE9FF4F0746464883B09946A5
:104100000068DDF840B08A46447C434800570128E7
:10411000204606DD02F06EFE8046204602F076FE66
:1041200005E002F056FE8046204602F058FE0446A6
:1041300017B302A901A8FFF73AFEB7F90060002EF5
:1041400000DA0026B7F90250002D00DA00250199A7
:10415000B7F904004144491E0EF073FC80460298F2
:104160000119B7F90600491E0EF06BFCA8EB060218
:10417000441B521C641C02E0002635464246B9F13D
:10418000000F01D1C4F10009002A01DD002C03DC7D
:10419000002007B0BDE8F08F4B4629463046CDF8E9
:1041A00000B0FFF743FF5FEA000909D000F066F8AE
:1041B0008046484600F0A8F80027DFF860B01FE00E
:1041C0005146059888470120E3E7E11B414502DAA3
:1041D000484600F07DF83FB1EA193146484600F004
:1041E000BBF84846FFF7A6FE514605988847DBF81E
:1041F000001009B1002088474846FFF7BDFE47443C
:10420000A742E2DB4846FFF751FF002000F07CF8B0
:10421000BEE70000A8020020E00200205C050020AC
:1042200038B505004FF0000411D0FFF74DFE2846C9
:10423000FEF76CFE0090006800698068804703F01C
:104240007BFD04466846FEF791FE00F0CBFE20465B
:1042500038BD38B504000ED0FFF736FE2046FEF715
:1042600055FE00F1180400906846FEF77FFE00F04E
:10427000B9FE204638BD002038BD000038B50446E0
:104280000025FFF721FE1CB908480068046E44B100
:104290002046FEF73BFE0090B0F90A506846FEF754
:1042A00065FE00F09FFE284638BD0000A8020020F1
:1042B00070B50546002428460AF0B4FE641C18B107
:1042C000BDE8704000F07AB8052CF4DB70BD00004A
:1042D00038B50C46050004D10A480068056E002D6B
:1042E0000FD0FFF7F1FD2846FEF710FE0090B0F961
:1042F0000A10A14200DD44816846FEF737FE00F057
:1043000071FE38BDA8020020F8B50546FFF7DCFDB8
:10431000104E3068046ECDB10CB100F0A3FB08F074
:104320002BFD2846FEF7F2FD009031680D6600680F
:10433000FEF7BCFF6846FEF719FE03F05BF903F0D9
:104340006DF800BF00F04EFE2046F8BD00F08AFB7D
:10435000F8E70000A80200207CB515460E460400D0
:1043600004D115480068046E002C24D0FFF7ACFD82
:104370002046FEF7CBFD2DB20090C58034B284807C
:1043800003F04CF80098406980B1FEF7BFFD009A39
:104390000190B2F908108180B2F90A20C28011B1EF
:1043A0000AB10480458001A8FEF7E0FD6846FEF7EB
:1043B000DDFD00F017FE7CBDA802002001490A4681
:1043C00000F002B801F0FFFF7FB515460C4606006D
:1043D0002DD0FFF779FD3046FEF798FD40F6FF71CE
:1043E0000190CC4203D1B0F90440B0F906500289E3
:1043F000611E1144ADF80840ADF80C104189681EEB
:104400000844ADF80E00ADF80A5001A8FEF7AEFD65
:1044100002A809F085FD06E02A462146304600F054
:1044200049F909F023FD0028F6D100F0DBFD7FBD3E
:104430002DE9FF4FDFF8E8B083B01C46DBF8001031
:10444000DDE9106092464FF000084B7C424612991D
:10445000FEF7EEFE050060D028698068804703F013
:104460006BFC81460AFB09F1C91DCF08FEF75CFD14
:10447000F10705D1C11700EB9170801000EB4000EF
:10448000002C09DC1FB11838B0FBF7F000E0002069
:104490006442A04200DC0446F00707D10090DDE949
:1044A00003012346524600F00BFD8046002C03DC3E
:1044B0002846FEF7F9FE30E004FB07F01830F1075C
:1044C00002D0FEF721FC01E0FEF72DFC06001CD017
:1044D000FEF71CFD01900560039981800499C1805D
:1044E000A0F808A04481C0F81480C0E9037901A8AD
:1044F000FEF73CFD1298AE602861DBF80000407CBE
:10450000A861304607B0BDE8F08F2846FEF7CCFE24
:104510005FEA080001D0FEF725FC0020F2E700006A
:10452000A80200202DE9F74F8EB0144689460E9858
:10453000FEF7ECFC0990B0F908B0B0F90A60006829
:10454000006940680C9009A8FEF710FD564D574FC2
:104550002868407C57F82000C1688A6A0821904783
:104560000790182801D3202007902868407C57F82E
:1045700020000069069003C80B904D48814201D08D
:10458000012000E000200A90002000F0B1FD00288A
:104590007DD1286809EB0B01B0F90C20891A491E5E
:1045A000002902DDABEB010500E05D46B0F9081023
:1045B000494505DDA1EB090189446D1A089101E027
:1045C00000210891002D6BDDB0F90E20A119891A88
:1045D000491E002902DDA6EB010800E0B046B0F953
:1045E0000A00A04204DD061B3444A8EB060800E0E4
:1045F0000026B8F1000F53DD089801900DA95F4621
:10460000DDF830A00E980091FFF723FE774300EB12
:10461000870101982B4601EB800200994846CDE9BD
:1046200000A1214600F0EAFF0090002838D00A9847
:10463000E8B1DDE906322946009800F009FEB0B97C
:104640000698009FDA46D0F810C0BCF1000F05D0E4
:1046500004235A4639463846E04708E00B99386843
:10466000884701C7AAF101005FEA000AF6D1009964
:104670000020079ACDE90301059001200090CDE9C3
:10468000010221460346641C2A46484600E007E032
:1046900001F058FFA8F10100761C5FEA0008ABD1D9
:1046A00011B0BDE8F08F0000A8020020C002002079
:1046B000E76E0008F8B515460E460746FEF726FCDD
:1046C000009000681621C068426A002090470446A6
:1046D0006846FEF74BFC002C03D02A46314638468C
:1046E000A047F8BDF8B515460E460746FEF70EFC86
:1046F000009044696846FEF739FC3846FFF790FDA4
:104700000346082800DD2CB12A46314638460FF012
:10471000DFFBF8BD2A46314638460FF079FDF8BD7B
:1047200002480068407C00F003B80000A8020020A6
:10473000F8B51D49096809B1002200E002461B498D
:104740008D56012D2EDD1849143151F822305B1C95
:1047500041F82230012B25D1A1F1080300261039A0
:1047600053F8224051F8221053F822707F1C43F86E
:104770002270AF4201D143F8226053F822708F4279
:10478000F2D03D46FEF704FE009000280AD0C06833
:104790002121426A68469047030003D02A462146F9
:1047A00000989847F8BD0000EC020020E0020020CD
:1047B000044A126802B10020002900DC0121024AEB
:1047C00011547047EC020020E0020020094A1268F0
:1047D00002B10020074A1C3252F82030002B07DBC0
:1047E000A2F1180343F820104FF0FF3142F82010D7
:1047F00070470000EC02002002480068407C00F096
:1048000003B80000A802002038B51449096809B1AE
:10481000002200E002461249895601291CDD0F4999
:10482000143151F822305B1E41F8223014D108397E
:1048300051F82240103141F82240FEF7A9FD0090C6
:10484000002809D0C0682221426A684690470200C9
:1048500002D021460098904738BD0000EC020020AD
:10486000E002002010B5002821D009B30AB3B1F945
:104870000040B2F900309C4200DA23460380B1F9CF
:104880000240B2F902309C4200DA23464380B1F97B
:104890000440B2F904309C4200DD23468380B1F924
:1048A0000610B2F90620914200DC1146C18010BD0D
:1048B00011460A6802604968416010BD00280BD0AB
:1048C00003880B4403808388194481804188114404
:1048D0004180C1881144C1807047000070B50E4D01
:1048E0000446D5E90001884209D10C49884201D12A
:1048F0003C3000E00C3807C884E8070006E090E888
:104900000E0084E80E000DF0A7FD2860207A002834
:1049100000D0012070BD000094050020F816012091
:104920000448D0E90010814201D1012070470020E5
:104930007047000094050020054A10B50349116036
:104940000FF0C0F9BDE8104000F07AB969D1000855
:10495000D002002070B50025FFF7B6FA094CD4E963
:10496000002082420AD0D2E9005610460DF07EFDAA
:1049700020603146284608F015FF012500F032FB83
:10498000284670BD000500202DE9FC41154DDDE9EC
:1049900008742D68B5F90860864200DD3046B5F927
:1049A0000C60964200DA3246824219DBB5F90A60A1
:1049B0008E4200DD3146B5F90E509D4200DA2B469D
:1049C0008B420DDB00E02C46E5682D6825B1042DF7
:1049D00002D02568002DF6D1CDE9007402F008FC64
:1049E000BDE8FC81A8020020B0F90220B1F9063030
:1049F0009A4213DCB1F90220B0F906309A420DDC7C
:104A0000B0F90020B1F904309A4207DCB1F9001086
:104A1000B0F90400814201DC01207047002070479A
:104A20000146024870220068FBF70ABCA802002079
:104A300070B515460E4604000AD0FFF745FA2A461F
:104A4000314620460EF0A0FEBDE8704000F0CABA24
:104A500070BD0000024970220968FBF7F1BB00003D
:104A6000A802002010B5FFF72FFA02F08DFC02F02B
:104A7000C1FD08F081F8BDE8104000F0B3BA0000B5
:104A800070B5094D04462868467CFFF71DFA022CD4
:104A900003D228684474FFF7E5FF0448046000F07F
:104AA000A1FA304670BD0000A80200208804002052
:104AB00010B50446FFF708FA204602F085FCBDE871
:104AC000104000F08FBA10B50446FFF7FDF92046FC
:104AD00002F0B2FCBDE8104000F084BA10B5044604
:104AE000FFF7F2F905496FF0704009680863204646
:104AF00002F0A8FCBDE8104000F074BAA802002043
:104B000010B50446FFF7E0F9204602F0BDFC04466C
:104B100000F068FA204610BD70B50446FFF7D4F9DE
:104B200004480068C56904B1C46100F05BFA284616
:104B300070BD0000A80200200149C8617047000054
:104B40006C02002001494860704700009C02002070
:104B500001490860704700006C020020014948606C
:104B6000704700006C02002070B514460D460646E2
:104B7000FFF7AAF922462946304602F0E5FC044632
:104B800000F030FA204670BD70B50546FFF79CF97D
:104B900003480068847E857600F024FA204670BDC4
:104BA000A802002070B50C460546FFF78DF90948AC
:104BB000224605800848048008480068417C08486F
:104BC00050F82100C1680B6A29469847BDE870403B
:104BD00000F008BAE8020020EA020020A802002043
:104BE000C002002070B50546FFF76EF90348006863
:104BF000047E057600F0F6F9204670BDA80200207C
:104C000070B50446FFF760F904480068B0F92C500D
:104C1000848500F0E7F9284670BD0000A802002056
:104C200070B50446FFF750F904480068B0F92A50FF
:104C3000448500F0D7F9284670BD0000A802002086
:104C400002480068002800D0004770474C0500204B
:104C500002498A6802B98860FFF7F2BF00050020A8
:104C600010B504000ED0FFF72FF920460EF0CCFA55
:104C700020460FF0D1F82046FEF774F8BDE810404A
:104C800000F0B0B910BD38B50C46050011D0FFF7E3
:104C90001BF92846FEF73AF900908089204201D09E
:104CA000012400E000246846FEF760F900F09AF95C
:104CB00000E00124204638BD38B5054600202860B4
:104CC0000648046844B12046FEF720F900900069C8
:104CD00028606846FEF74AF9204638BDA005002046
:104CE00038B504004FF000000D46086011D0204692
:104CF000FEF70CF90090846844B16846FEF736F977
:104D00002046FEF703F90090006928606846FEF728
:104D10002DF9204638BD0000074A002806DB00298F
:104D200004DB01231372C2E9000101E000201072CC
:104D3000014800F003B80000E815012010B5044652
:104D40000C220849FBF7B5FA002809D0054894E879
:104D50000E0080E80E002046BDE81040FFF7ECBDD5
:104D600010BD00007C16012010B507F0BDFB0848FF
:104D70000178012906D04FF0FF31BDE81040084608
:104D8000FFF7CABF81894088BDE81040FFF7C4BF64
:104D90006C6300202DE9F041084E04460568306838
:104DA0000168284688470746306841682846884792
:104DB000284420603846BDE8F0810000AC020020A5
:104DC0002DE9F0410C4606460025064F05E03868FF
:104DD00041683046884706440544641EF7D2284699
:104DE000BDE8F081AC0200202DE9F0411E46069C92
:104DF0001746884605463A46A8687F1C3346D0F8D1
:104E000004C041462846E047641EF4D1BDE8F08165
:104E100070B5B0F90040091BB0F904408C422CDD9C
:104E200000F11404B0F902500069521B02FB00406B
:104E3000CA1800EBE104521ED010B0EBE10501F0FE
:104E400007034FF0FF0102F0070221FA03F0C2F15D
:104E5000070201FA02F1CEB221780FD001436D1E94
:104E600004F8011B002D05DDFF2229462046FBF733
:104E700007FA2C4420783043207070BD3040014345
:104E8000217070BD10B5B0F90030B0F90240C91AF8
:104E900000F114030069121B02FB003000EBE1007B
:104EA00001F0070302788021D9400A43027010BD47
:104EB000B0F90610026951431430FBF7E8B900005D
:104EC0002DE9F843804602F10F000011470003FB73
:104ED00007F01C46154689461430FDF724FF0600EE
:104EE00018D0FEF7F1FF3046FEF710F80090A0F85A
:104EF0000080A0F802908580C4800749816001216C
:104F0000818107616846FEF731F800F06BF83046A2
:104F1000BDE8F8830020FBE7A0EA020870B5B0F90D
:104F20000660B0F904400B6800F1140596421BDDE1
:104F30000069A34202FB005000EBE30214DA641E96
:104F4000E010A0EBE30512F8010B03F00704A0400A
:104F5000C4B206E045B1083312F8014B23F0070351
:104F60006D1E002CF6D004E0002070BD6006040E1B
:104F70005B1C2006FAD5FF2C07D0184602E0640619
:104F8000240E401C6606FAD400E0D81DC443640712
:104F900005D006E012F8014BFF2C09D108306D1E38
:104FA000F8D5C01A401C0B6070BD6206140E401C80
:104FB0002206FAD4F5E738B50546FEF785FF284600
:104FC000FDF7A4FF00908189491E0CB284816846D8
:104FD000FDF7CCFF14B92846FDF7C4FE00F002F837
:104FE00038BD00000348C168491EC16001D100F00E
:104FF00075B87047300500202DE9F04116460F4680
:1050000005460024FEF760FF32463946284600F088
:1050100043FF054408B1641CF6E7FFF7E3FF2046B1
:10502000BDE8F0814FF480010148FDF793BE000018
:1050300000E02ED008B56A46002104F00BFB08BD45
:1050400008B501206A46002104F004FB08BD0000F9
:105050000248006890F83700704700000C020020FA
:1050600008B5684604F040FB08BD000008B56B4673
:10507000002202A1034803F0F3FC08BD4B657953FD
:10508000656D0000D463002008B56B46012205A1C0
:10509000064803F0E5FC6B46002205A1074803F033
:1050A000DFFC08BD4469737053656D0084630020A4
:1050B0004576656E7453656D00000000AC6300209A
:1050C00000B583B001A8002300901A461946024893
:1050D00003F008FD03B000BD8463002008B56A46F4
:1050E0000021024803F0AEFD08BD000084630020EB
:1050F0000EB508B102AA00E00022002301A968460B
:1051000000F03CFC0EBD0000074910B5CC6818B19A
:105110000120C860801E03E00020C8606FF07F405F
:1051200001F0CEF9204610BD1005002010B5082A68
:105130000EDC0346012A18D0022A56D0042A76D063
:1051400010F8042B03F8012B491EF9D1012010BDE2
:10515000102A08DC4FEA000230F8043B22F8023B38
:10516000491EF9D1F2E7002010BD10F8042BD20738
:10517000120E491E34D010F8044B491E04F00104ED
:1051800042EA84122CD010F8044B491E04F00104AA
:1051900042EA441224D010F8044B491E04F00104E2
:1051A00042EA04121CD010F8044B491E04F001041A
:1051B00042EAC40214D010F8044B491E04F0010462
:1051C00042EA84020CD010F8044B491E04F001049A
:1051D00042EA440204D010F8044B04F001042243D4
:1051E00003F8012B0029C0D1B0E710F8042B920777
:1051F000120E491E15D010F8044B491E04F003048A
:1052000042EA04120DD010F8044B491E04F00304C6
:1052100042EA840205D010F8044B04F00304224350
:10522000491E03F8012B0029DFD18FE7FFE710F8B3
:10523000042B1207120E491E05D010F8044B04F07F
:105240000F042243491E03F8012B0029EFD17DE70B
:1052500038B50024009400F01DF838BD0B4810B597
:105260008169002910D101218161FFF7DBFEFDF783
:1052700045FC02F0D1F9054905481C310860BDE83C
:105280001040084600F058BD10BD00009C020020F0
:10529000A52B01082DE9F0410D460699044601B9F8
:1052A00001461F68082A09DC0E46012A1AD0022A84
:1052B0005BD0042A7DD0082A13D18DE0102A07DCA8
:1052C000D3F810C00E46BCF1000F04D0022389E0D1
:1052D0000020BDE8F08101CCB84726F8020B6D1E16
:1052E000F9D189E001CCB847C0074FEA10686D1EBC
:1052F00036D001CCB84748EA801000F0FF086D1E98
:105300002ED001CCB84748EA401000F0FF086D1ECF
:1053100026D001CCB84748EA001000F0FF086D1E07
:105320001ED001CCB84748EAC00000F0FF086D1E4F
:1053300016D001CCB84748EA800000F0FF086D1E87
:105340000ED001CCB84748EA400000F0FF086D1EBF
:1053500006D001CCB84740EA080000F0FF086D1EF7
:1053600006F8018B002DBDD146E001CCB84780077F
:105370004FEA10686D1E16D001CCB84748EA0010FD
:1053800000F0FF086D1E0ED001CCB84748EA80003F
:1053900000F0FF086D1E06D001CCB84740EA0800B7
:1053A00000F0FF086D1E06F8018B002DDDD123E013
:1053B000FFE701CCB84700074FEA10686D1E06D022
:1053C00001CCB84740EA080000F0FF086D1E06F85F
:1053D000018B002DEDD10FE0D3F810C0BCF1000F10
:1053E00004D001232A462046E04705E001CCB84717
:1053F00006F8010B6D1EF9D101206AE70149084446
:1054000000F010BD905F01007CB5064628480D46AF
:10541000006868B1002008F083FD06E06A4629466E
:10542000304609F0C7FE08F021FD0028F6D17CBD0A
:10543000106800901F4C506801902268BDF8000071
:1054400032F84C1F0844ADF80000BDF80200918806
:105450000844ADF80200BDF8040011880844ADF816
:105460000400BDF8060091880844ADF806006846BF
:1054700008F056FD0EE000BF2068BDF800106A4637
:105480004184BDF8021081842946304609F092FE1D
:1054900008F0ECFC0028EFD1206830F8221F428D84
:1054A000891A01804188C28D891A41807CBD000023
:1054B000E4020020A80200202DE9FF4F85B09A46A3
:1054C00090460D46FEF748FC4FF00009DDF814B099
:1054D00006464C4625B1286800906868019002E0B5
:1054E0006846FEF703FC18F00C0F02D05546002763
:1054F00013E0BDF902402DE029467F1C059800F01D
:10550000BFFA01466D1A0598FFF75AFC0599084441
:10551000059005A800F0EAFA08B9002DECD108F0D2
:105520000C00042804D0082802D00C2812D105E071
:10553000BDF9060007FB1604641C0BE0BDF906006C
:10554000BDF90210401A07FB1600401C00EBD0709A
:1055500001EB60045546CDF814B043E029460598A8
:1055600000F08EFA07460146ED1B059800F05EFA42
:1055700018F003010ED0012939D002290DD1BDF94F
:105580000410BDF90020891A091A01EBD17102EB50
:10559000610101E0BDF900108946174A401E4844E8
:1055A00012683946A2F822909484ADF80C00A01934
:1055B000401EADF80890ADF80E00ADF80A4002AA02
:1055C0000598FFF721FF39460598FFF7F9FB059984
:1055D00008440590FEF7C0FB044405A800F086FAD5
:1055E000002801D1002DB9D109B0BDE8F08FBDF977
:1055F0000410091A491CCFE7A80200202DE9FF4F2B
:105600008DB00020DDF86CA0164600901D460446C3
:105610000246CAF8000008AB03A902A800F0AEF9E0
:1056200018B1002011B0BDE8F08F0898854200DD68
:105630000546614F0B9561493868407C51F8201050
:10564000049109690691FEF715FB05903868407CC6
:10565000FEF7ECFB5A498146884204D059498945F6
:1056600001D0012000E000200A9001CE1A9988475D
:105670008346000E079077D0009870BB0D9800EB22
:1056800004084D480068B0F90800404503DDA0EB70
:105690000807804600E000270298049900EB840088
:1056A00000EB8700CDE900010B990D984218099293
:1056B0000E9B40461946521EFFF766F901200090E6
:1056C000059818280ADA0298DDE9052300EB840022
:1056D00000EB8700E91B00F0AFF812E00A9880B1F8
:1056E000029800EB840000EB87070998A0EB0808FC
:1056F00049463868884701C7A8F101005FEA0008F9
:10570000F6D13148C06980B3DDE9020700EB8400BF
:1057100007EB8402CDE902022B4C361F3046E469C8
:105720002B460299A047FF213068B1EB106F02D1E0
:105730000298006804E0029A1268B1EB126F01D17E
:10574000039A1060029806F10406001D0290039867
:10575000001D03906D1EE7D10397DAF8000040F0BA
:105760000101CAF8001020E021E0FFE70798FF28B8
:1057700011D0C0F1FF02029850F82410584600F0F2
:1057800073FA039941F82400DAF8000040F00101AF
:10579000CAF8001005E00298039950F8240041F877
:1057A0002400641C6D1E7FF460AF03983AE70399F0
:1057B00041F824B0E8E70000A8020020C002002061
:1057C000E76E0008E56E00086C0200202DE9FF4F2F
:1057D00087B00C46DDE91698DDE914BA0546FEF7F8
:1057E00073FB1448099A0168C86C096D471985183C
:1057F0000E190A98ADF810700C18ADF81450ADF8E9
:105800001260ADF8164004A808F08AFB0BE0CDE961
:105810000298CDE900BA23462A46314638460BF0B5
:1058200003FD08F023FB0028F1D1FFF7DBFB0BB0F1
:10583000BDE8F08FA80200202DE9F05F0C1E16DDF8
:105840005E68014600EB8405082A12DC611E012A0D
:1058500026D0022A47D0042A6AD0082A07D107197D
:1058600017F8010DB04745F8040D641EF8D1BDE8E6
:10587000F09F102AFBDC5F693FB12246BC46BDE8C1
:10588000F04F02235DF804EB604701EB440700BFD3
:1058900037F8020DB04745F8040D641EF8D1E6E76D
:1058A00000EBE10001F0070710F801A98146802014
:1058B00020FA07F8B5F104050AEA0800C7F1070164
:1058C000C840B04745F804093FB14FEA48604FEA85
:1058D00010687F1E641EEFD1C9E719F801A90727D8
:1058E0004FF00108F6E700EBA10001F0030710F804
:1058F00001A981467900C02020FA01F84FF0060B7B
:10590000B5F104050AEA0800ABEB4701C840B0470F
:1059100045F804093FB14FEA88604FEA10687F1EDE
:10592000641EEFD1A3E7032719F801A9B846F7E7EA
:1059300000EB6100012710F801A9A7438146B900D7
:10594000F02020FA01F84FF0040B2D1F0AEA08009E
:10595000ABEB8701C840B04745F804093FB14FEAB7
:1059600008704FEA10687F1E641EEFD17FE719F8B8
:1059700001A901274FF00F08F6E700002DE9F047D5
:10598000224C06461F46A06990468946002540B92C
:105990000120A06104F120011D480860084600F0C4
:1059A000CBF9606930B91B480068606110B901F03B
:1059B00013FA606107B138604EB1A06830B9606910
:1059C0008000FDF715FAA06000B901253060B9F13B
:1059D000000F0AD0E06830B960698000FDF708FA6E
:1059E000E06000B90125C9F80000B8F1000F0AD045
:1059F000206930B960698000FDF7FAF9206100B9CB
:105A00000125C8F800002846BDE8F0876C02002098
:105A1000492B0108D802002003480068C069017EB4
:105A2000C07E11FB00F07047A802002073B5124A37
:105A300001A900981268904700240090C8B10F494E
:105A400000250968C969496959B10A684AB10199CB
:105A500090477CBD6846FFF79DF90546FEF720F9A3
:105A600004440198401E0190F4D5284600F032F815
:105A7000044420467CBD0000F8040020A802002059
:105A800073B50D460098002490B10A490968C969A8
:105A9000496959B14A684AB1294690477CBD684670
:105AA000FFF778F920B10A2802D0641CAC42F6DB7B
:105AB00020467CBDA8020020044AB2F90020026002
:105AC0000348B0F90000086070470000E8020020B9
:105AD000EA02002038B5002469460094FEF7F2F887
