:020000040800F2
:10000000B82E0120C1010008E5CD00081F870008B7
:10001000E1CC0008BD0E0008CD280108000000005A
:10002000000000000000000000000000011F0108A7
:100030008D1A0008000000008B070008A1E30008EB
:10004000FB010008FB010008FB010008FB010008A0
:10005000FB010008FB010008FB010008FB01000890
:10006000FB010008FB010008FB010008FB01000880
:10007000FB010008FB010008FB010008FB01000870
:10008000FB010008FB010008FB010008FB01000860
:10009000FB010008FB010008FB010008FB01000850
:1000A000FB010008FB010008FB010008FB01000840
:1000B000FB010008E9230108FB010008FB0100081F
:1000C000FB010008FB010008FB010008FB01000820
:1000D000FB010008FB010008FB010008FB01000810
:1000E000FB01000819030108FB010008FB010008DF
:1000F000FB010008FB010008FB010008FB010008F0
:10010000FB010008FB010008FB010008FB010008DF
:10011000FB010008FB010008FB010008FB010008CF
:10012000FB010008FB010008FB010008FB010008BF
:10013000FB010008FB010008FB010008FB010008AF
:10014000FB010008FB010008FB010008FB0100089F
:10015000FB010008FB010008FB010008FB0100088F
:10016000FB010008FB010008FB010008FB0100087F
:10017000FB010008FB010008FB010008FB0100086F
:10018000FB010008FB010008FB010008FB0100085F
:10019000FB010008FB010008FB010008FB0100084F
:1001A000E9B90008FB010008FB010008DFF80CD0EA
:1001B00000F078FA0048004789530208B82E012061
:1001C000DFF83800016841F470010160BFF34F8F20
:1001D000DFF82C00016821F040410160BFF36F8F10
:1001E0000848804708480047FEE7FEE7FEE7FEE7CD
:1001F000FEE7FEE7FEE7FEE7FEE7FEE788ED00E04C
:1002000034EF00E045200108AD01000872B67047E8
:1002100062B67047EFF3108072B6704780F31088B3
:10022000704730BF704720BF7047B0FA80F070470A
:1002300090FAA0F0B0FA80F0704790FAA0F0704702
:1002400010B5431A934209D28318881803E010F8B6
:10025000011D03F8011D521EF9D210BD40EA010331
:100260009B0703D009E008C9121F08C0042AFAD26C
:1002700003E011F8013B00F8013B521EF9D210BD1A
:10028000D2B201E000F8012B491EFBD270470022D8
:10029000F6E710B513460A4604461946FFF7F0FF85
:1002A000204610BD421C10F8011B0029FBD1801A0A
:1002B000704730B504460020034600E05B1C9342C3
:1002C00003D2E05CCD5C401BF8D030BD034611F892
:1002D000012B00F8012B002AF9D1184670472DE9AF
:1002E000FE4F804681EA0300C00F0C46009021F0CB
:1002F000004123F00045B8EB0200A94105D2404679
:10030000214690461C460B46024623F0004010430F
:1003100047D0270DC7F30A00C3F30A510290401AD1
:10032000019040286BDAC3F3130040F4801B00985F
:10033000924620B10023D2EB030A63EB0B0B01982A
:100340005946C0F14002504600F01EF906460D46DF
:1003500050465946019A00F036F910EB0800614109
:10036000002487EA115284EAE7731A4340D0009AC6
:1003700062B3019A012A4FEA075215DC001B61EBB8
:1003800002014FF0004202EA0752CDE90042001C90
:1003900041F5801132462B4600F036F903B0BDE836
:1003A000F08F40462146F9E7001B61EB0201001C7B
:1003B00041F5801300185B412018A2F5001747EBA8
:1003C000030140EAD570B6196D4111E06D084FEA9E
:1003D000360645EAC0754FEA0752001B61EB020181
:1003E000001C41F5801149084FEA300000195141C5
:1003F00032462B4603B0BDE8F04F00F0F6B8009847
:10040000012240000023D0EB020263EBE07300986E
:1004100021464FEAE074B8EB000061EB0401E9E724
:1004200083F000435BE781F0004158E72DE9FE4F80
:1004300081EA030404F0004421F0004100944FF0ED
:10044000000B23F0004350EA01045ED052EA03049B
:100450005BD0C3F30A54C1F30A552C44A4F2F3341D
:100460000194A0FB0254C1F3130141F48011C3F3C2
:10047000130343F4801301FB024400FB034E840A80
:10048000970A44EA815447EA8357A4FB0768029518
:100490008D0A05FB07854FEA932C04FB0C542705B6
:1004A000029D4FEA065847EA1637B5EB08056EEB92
:1004B000070C870E920E47EA811742EA8312A7FBC8
:1004C0000201B6EB0B0164EB00042B0D43EA0C3385
:1004D0005E1844EB1C50DA465146E7FB0201C5F3B7
:1004E00013044FEA0B3343EA14534FEA0432019CDE
:1004F00043EA0603A4F10C040294009CCDE900B485
:1005000000F082F803B0BDE8F08F00200146F9E763
:100510000EB540F2334102910021CDE900110A46A7
:100520000B4600F071F803B000BDC1F30A5210B5DC
:10053000C1F3130140F2FF3341F480119A4201DA12
:10054000002010BD40F233439A42A2F2334203DC52
:10055000524200F028F810BD904010BD30B50B4657
:10056000014600202022012409E021FA02F59D42E3
:1005700005D303FA02F5491B04FA02F52844151EB7
:10058000A2F10102F1DC30BD202A04DB203A00FA9E
:1005900002F1002070479140C2F1200320FA03F3DA
:1005A000194390407047202A04DB203A21FA02F0D8
:1005B0000021704721FA02F3D040C2F1200291409D
:1005C000084319467047202A06DBCB17203A41FA28
:1005D00002F043EAE07306E041FA02F3D040C2F1D0
:1005E0002002914008431946704710B5141E73F15C
:1005F000000408DA401C41F1000192185B411A43E3
:1006000001D120F0010010BD2DE9F04D92469B462E
:1006100011B1B1FA81F202E0B0FA80F220329046D4
:10062000FFF7B2FF04460F4640EA0A0041EA0B0119
:1006300053465A46084313D0114653EA010019D0D5
:10064000C8F140025046FFF7AEFF05460E46504641
:1006500059464246FFF798FF084305D0012004E0C1
:1006600020463946BDE8F08D0020054346EAE07695
:100670002C4337430A986305E40AA0EB08000022E4
:10068000FD0A44EA47540A3002D500200146E9E752
:10069000010510196941DDE9084500196941BDE806
:1006A000F04DA2E7064C074D06E0E06840F001037C
:1006B00094E8070098471034AC42F6D3FFF77AFD70
:1006C0007C8904089C89040870B58D1810F8014BCA
:1006D00014F0030201D110F8012B231106D110F8F8
:1006E000013B03E010F8016B01F8016B521EF9D1D8
:1006F000ABB110F8012B04F00C048A1A0C2C03D0B7
:10070000A2EB84129B1C08E010F8014BA2EB042220
:10071000F8E712F8014B01F8014B5B1EF9D5A9422D
:10072000D4D3002070BD0000EFF3098141B1F1EE98
:10073000101A40F8041D20ED200A24490A681060B0
:100740007047B0EC200A02C8E1EE101A20490A688E
:10075000106070471F484FF0FF010170002080F3C8
:1007600009881D48016881F308881C484FF08051B2
:10077000016062B6FEE719484FF080510160704792
:1007800016484FF080510160704772B6EFF3098050
:1007900028B1203880E8F00F0C490968086000B5DE
:1007A0000F4880475DF804EB0E480F490A78027045
:1007B000064807490A680260106890E8F00F203088
:1007C00080F309884EF0F40E62B670470C020020E8
:1007D0001002002022ED00E01402002004ED00E0F1
:1007E00021E200088E0100208F010020002981688D
:1007F00014BF41F0010121F0010181607047000048
:100800000849D1F80423084B1A40D0E9003C43EAD8
:100810000C03D0E902C04CEA000018431043C1F8B1
:100820000403704700200140E030FCFF10B4426830
:1008300091F804C022F4807222F040720B6842EA00
:100840000C221A43426082680C4B4C791A40D1E961
:1008500003C343EA0C03D1F808C04CEA440C43EA52
:100860000C031A438260C26A097D22F47002491E99
:10087000C9B242EA0151C16210BC7047FDF7FFC026
:1008800010B501218AB008460FF02AFC01210802A8
:100890000FF04AFC00244FF44030CDE906400894A4
:1008A00006A80994FFF7ACFF01208DF814008DF81D
:1008B00004408DF80540009404940294064C694667
:1008C0002046FFF7B3FF012000F008F80121204681
:1008D000FFF78CFF0AB010BD002001400549002839
:1008E000D1F8040314BF40F4000020F40000C1F864
:1008F0000403704700200140002800DC404270479C
:1009000000B585B068460FF01BFC019805B000BD2E
:1009100038B5456804460146284612F04BF80028D1
:100920002BD02068304A11280DD006DC0B2825D0AA
:100930000E2833D00F2852D112E0282849D0B0F524
:10094000107F4CD108E09268002A16D02146284634
:1009500001B0BDE830401047214628465268F7E70D
:10096000284603F077FB0090406E0468684603F069
:10097000C5FB002C01D02846A04738BD284603F00F
:1009800069FB0090683003F0C3FA009803216C30D3
:1009900003F0CCFA684603F0B1FB20E0E168486858
:1009A00009680D2902D0202913D105E0002810DDA7
:1009B00028461EF0FBF906E0002804DD2846BDE8C5
:1009C00038401EF0F3B92846BDE8384002211EF039
:1009D00003BAE06818B90021284600F0EBF9204678
:1009E000BDE8384012F0DCBC440400202DE9FF4192
:1009F0000AAF97E87000002703958DE8D00000F05B
:100A000003F804B0BDE8F081F0B585B00DF1280C15
:100A10009CE8F0004FF0000C8DE8F01000F024F896
:100A200005B0F0BDF0B5044685B08069B4F9085052
:100A3000668A0027CDE90265CDE900170490B4F974
:100A40000C00B4F91060C118B4F90A00B4F90E50E2
:100A5000104433462A4600F007F80546616800F066
:100A6000E1F905B02846F0BD2DE9F04F85B01F46ED
:100A7000DDE911B4DDE90E5690468946824604F060
:100A800031FE16484C34CDE90204CDE900563B4610
:100A900042464946504612F0CBFB040018D003F002
:100AA000D9FA10225946049012F086F9049830229F
:100AB0000B493430FFF7C4FB094D04990C3D2868FD
:100AC000486604A803F01AFB286841682046884756
:100AD00006F002F905B02046BDE8F08F11090008C4
:100AE00050040020F0B5044680688B4989B051F865
:100AF0002050606800287DD0052804D006287AD0D0
:100B0000122879D1AEE0E86900284FD095E80E00B0
:100B10008DE80F0004F110010FC906F09BFE0026BE
:100B200055F8260005F04DFDA169E8690A1A21690A
:100B300001446069304404F01FFAA169E8690A1AA7
:100B400021690144E069801B04F016FAE169E86953
:100B50000A1A616901442069304404F0CDFAE16960
:100B6000E8690A1A61690144A069801B04F0C4FAAB
:100B7000761C022ED4DBA86805F023FDE069E96944
:100B80006669431A206942183144801C521E04F0E1
:100B90009FFBE169E869A2690B1A61690144101AB7
:100BA000401C921E04F094FBEE6913E05FF0000617
:100BB00055F8260005F005FDE069831BA069821B3E
:100BC000606981192069304404F04CFA761C022EC9
:100BD000EEDB0226D5E90301CDE900016169E06998
:100BE00008444310A069891C821B2069304404F02A
:100BF00087F902E089E012E08AE0D5E90501CDE954
:100C00000001E36960690121184401EB6001A069FA
:100C10009B1E821B2069304404F072F978E0206842
:100C200003F018FA0490206814F000F940B1A068AD
:100C300008B1002008E00498006F28B1012003E00B
:100C40000498406F00B10220049901EB8000C56E4A
:100C500004A803F053FA00231A462846216803F03B
:100C600075FE55E0206803F0F5F90490866EEEB34A
:100C7000B0F95C70A168D1B3032942D05FF00001E4
:100C800000EB8101406D0C6C05F0B2FC204605F0D4
:100C900098FC05A804F0DEFBBDF81410A88B0144F5
:100CA000ADF81410BDF81810081AADF81800BDF80A
:100CB0001600801CADF81600BDF81A00801EADF8B5
:100CC0001A000498B0F96020B0F95E1005A805F08C
:100CD0008FFA04A803F012FA022005F02BFD30462B
:100CE00003F0B8F93A4605A9079001E00BE006E0E9
:100CF00003F04AFF0DF11C0003F000FA08E00121A7
:100D0000BEE70221BCE704A8F6E7206813F06EFCFA
:100D100009B00020F0BD00003C2804082DE9FC418A
:100D200015460E46040022D004F0DCFC204603F0F9
:100D300091F90190806E002798B103F08BF9009033
:100D4000FFF7B0FA0446681E844200DD04462246DE
:100D500030460099FFF774FA684603F0CFF937552B
:100D600000E0377001A803F0C9F905F0B5FFBDE850
:100D7000FC8138B503F06EF904460090684603F034
:100D8000BDF9204638BD0000044A034911600449FA
:100D90004A6A4862104670478004002044040020DC
:100DA0005004002000294FF0100101D011F096BE30
:100DB00011F0D8BD4FF480720029114601D011F016
:100DC0008DBE11F0CFBD08B50023009300F001F8EF
:100DD00008BD70B516460C46054619463046049ABD
:100DE00003F096FD024621462846BDE8704000F01B
:100DF00046B8000038B50C46054604F073FC28469A
:100E000003F028F90090064984654166684603F0BE
:100E100075F9284613F08AF805F05EFF38BD00002A
:100E2000800400202DE9FF410E4605004FF001042B
:100E300021D004F057FC284603F00CF90190876E8E
:100E400001A8009703F05AF93146684607F08AF87E
:100E500078B100980024B84208D0284603F0FAF888
:100E600001900099816601A803F048F9284613F023
:100E70005DF805F031FF04B02046BDE8F081F8B51B
:100E800015460C46060018D004F02CFC304603F042
:100E9000E1F80090032C0BD200EB84006C3003F0DF
:100EA00037F8009800EB8400C566304613F03EF832
:100EB000684603F023F905F00FFFF8BDFEE730B5F3
:100EC0004568044601469BB0284611F073FD002892
:100ED0000CD020680E280BD00F2813D0262815D050
:100EE000B0F5107F09D0204612F05AFA1BB030BD81
:100EF000214628461EF096F8F8E7214628461EF0BF
:100F0000F5FFF3E728461EF078F9EFE7A06812F046
:100F10002AFC4FF4B873E168984203D0A0F58072C0
:100F2000713AE3D10229E1D1984201D1CC1E00E00F
:100F300001246C226946284612F044F804980019EE
:100F4000049002D00D2805D009E00398401E0390BC
:100F50000C2003E00398401C0390012004904FF400
:100F6000B071284612F0B0FB049A6FF00303189991
:100F700003EB82028958039A21F0F0FD6C22694646
:100F8000284612F035F8284612F0D0FF0A212846EC
:100F900013F09FF8AAE700002DE9FF4FB9B00F4604
:100FA000DDE9465BDDE949981C461646702102A83A
:100FB000DDF820A1FFF76BF96C211EA8FFF767F998
:100FC000681E0C287ED2A4F22E6042F2E201884212
:100FD000F8D244225F4927A8FFF732F91F22BBFB52
:100FE000F2F102FB11B020A9CDE91E4581E83100E4
:100FF00001202390CDF8E0A0209A57482494029035
:10100000CDE925523398359AC0EBC00134984FF49E
:10101000B874C0EBC0001044ADF818006C20089004
:10102000ADF81A80ADF82C400320ADF82E003598AD
:101030004A4B0A38ADF81270ADF81090ADF8146054
:101040000993ADF83400651C1093ADF81610ADF897
:101050004850359B0522C91AC91DADF84A10404BAE
:101060001793C31CADF83020ADF85000ADF8320036
:10107000ADF84C204FF4B076ADF86820C91AADF841
:101080006C00ADF84E00ADF86460ADF86630ADF8B8
:101090006A10002000900190324A042102A8399B76
:1010A00003F00CFB070053D06FF0704111F08DFF7F
:1010B0002D49384613F04FF92146384612F004FB0B
:1010C000044600E044E00021FFF76CFE274920467B
:1010D000FFF790FE2946384612F0F6FA0446002142
:1010E000FFF760FE21492046FFF784FE314638466F
:1010F00012F0EAFA04461E4913F02DF90E2120469B
:1011000011F045F920462E9911F056F920463299F2
:1011100011F0FCF8204612F02FF820462D9911F01E
:10112000D5F822996FF00302369802EB8101219ADB
:101130004158204621F012FD384613F0D1F96C22B7
:101140001EA9384611F054FF38463DB0BDE8F08F77
:101150000020FAE7980500201B2F0108250A000847
:10116000EF210108BF0E00081551020831A801083F
:101170001331020830B59BB00C46054604F0B2FAB4
:101180006C226946284611F01DFF06AB93E8070064
:1011900084E8070005F0A0FD1BB030BD30B59BB062
:1011A0000C46054604F09EFA6C226946284611F06A
:1011B00009FF94E807008DE807006C22694628467D
:1011C00011F016FF284612F0B1FE05F085FD1BB0A8
:1011D00030BD0000022803D2024A02EB8000816287
:1011E0007047000098050020054A28B1012805D065
:1011F000022800D1516370479163704711637047B3
:1012000098050020F8B5446805460146204611F0CF
:10121000D1FB002836D028680B2839D00E2805D0FD
:101220000F2821D0B0F5107F3CD12CE0204602F0F1
:1012300011FF009010F8746F4778684602F05EFF67
:10124000204613F0F3FD10B3E8684168002929DD5A
:101250000068202826D17F1CB7FBF6F006FB107132
:10126000204600F01BF91DE02546204602F0F2FE64
:101270000090006F0468684602F040FF002C01D027
:101280002846A047F8BD294620461EF0DEFF09E0AB
:10129000204602F0DFFE0090783002F039FE68460A
:1012A00002F02CFF2846BDE8F84012F079B8F0B5FE
:1012B00085B0B0F90850468A84690296CDE9035496
:1012C0000027CDE90017B0F90C10B0F91050B0F9B3
:1012D0000E40B0F90A00194410442B46224600F093
:1012E00003F805B0F0BD00002DE9F04F85B01D46B4
:1012F000DDE90E9716468A468346DDF8488004F0FD
:10130000F1F9254C0EB135B10AE02068806800681B
:1013100080470646F7E720688068006880470546F2
:101320001D486FF07041001DC068884201D147F030
:10133000010708F15400194ACDE90220CDE90097D0
:101340002B4632465146584611F072FF05001CD01C
:1013500002F080FE10220490119911F02DFD0E492B
:1013600004983C22091D3430FEF76AFF0498216876
:101370000167022180F874100F21C16704A802F0F0
:10138000BDFE206841682846884705F0A5FC05B0E9
:101390002846BDE8F08F00008C0A002005120008E6
:1013A0002DE9FF470446006810B113F03FFD68B116
:1013B0000022314850F8221060680A2841D007DC2A
:1013C000F0B306280DD0072854D106E00122F0E73B
:1013D00012280AD019284DD137E0204616F0EEF831
:1013E00048E0204618F070F844E0206802F032FE31
:1013F0000290B0F9548090F85650476C466B02A8A2
:1014000002F07CFE206800F039F88146684612F050
:1014100017F9BDF8001009EB05000844ADF800000D
:10142000246A304605F0E4F8022005F083F93846D6
:1014300005F0C7F842466946204603F0A5FB19E0CF
:1014400007E0204618F0F3FC14E0886904B0BDE81A
:10145000F087206813F0CAF8206802F0FBFD0390C3
:10146000B0F90610B0F90220891A491CC16703A817
:1014700002F044FE0020E9E74484040838B504463D
:1014800004F030F9204602F0E5FD0090C46F684694
:1014900002F034FE05F020FC204638BD38B50C467D
:1014A00005001BD004F01EF9284602F0D3FD009081
:1014B00090F87410A1420CD980F87540684602F08B
:1014C0001DFE284612F032FD0521284612F001FECD
:1014D00002E0684602F012FE05F0FEFB38BD000097
:1014E00000B589B024216846FEF7D1FE192001908D
:1014F00003480068806841686846884709B000BDB5
:101500008C0A00207CB5214C0546216831F8220F59
:101510004A8D104408804888CA8D10444880284667
:1015200003F072FF2168498CADF800104618284678
:1015300006F0DEFB3044401EADF8040003F0EAFF85
:101540002168898CADF802100844401EADF80600F1
:10155000684613F0F7FA04E0284601F045FE13F060
:1015600087FA0028F8D10A2D04D0BDF804002168BC
:10157000401C4884206830F8221F428D891A01805F
:101580004188C28D891A41807CBD00007003002013
:10159000084910B50020086000F016F8FEF73AFE82
:1015A0000446102104480BF09DFB2046BDE8104086
:1015B000FEF734BE440100201401012001490860F7
:1015C000704700004401002000B585B068460EF069
:1015D000B7FD094901980A6842F080720A6007491C
:1015E00000224A600A6842F001020A6005B05DF814
:1015F00004EBFFF7E3BF0000FCED00E0001000E0AB
:101600000148406870470000001000E02DE9F05FDD
:1016100004461B4891461B4A50F82460001D52F8AE
:10162000242050F824504FF0000B06FB05F05043E7
:10163000154ADA4652F8242000FB012800FB09274E
:10164000204606F0AFFD014610484FF400720260DC
:10165000C0F80C80C763C0F810B0C0F840A0C161EA
:1016600066F31F454564016841F0010101600168AE
:1016700011F0010FFBD1064840F82490BDE8F09F1F
:1016800030010020380100202401002000B0024079
:101690002C0100202DE9F047DFF880C0204F089E84
:1016A0005CF820C057F8207002FB0C110CFB07F906
:1016B0001C4FDDE9095457F8208009FB08F7DFF8D3
:1016C000689059F820A009F1080959F8209007FB03
:1016D00009A901FB089706FB0C3101FB0896ACEB4E
:1016E00005094FF0000806F05DFD10494FF4007247
:1016F0000A60CF60CE63C1F81090C1F84080C86125
:1017000065F31F444C64086840F0010008600868F5
:1017100010F0010FFBD1BDE8F08700003001002080
:1017200034010020380100202401002000B00240D4
:101730002DE9F0471D46DDE908691746884604464D
:1017400003F0B2FE012839D0A5EB0800451CF01BC0
:10175000461C2348DFF894C050F82410001D5CF8A4
:1017600024C050F8240001FB00F31E4850F8242048
:1017700003FB02F01C4B53F8243000FB0C3007FB3A
:10178000018303FB02072046A1EB050806F00AFDD2
:101790001849174A0A60C1F83890CF63C1F84080F1
:1017A000486365F31F464E64086840F00100086016
:1017B000086810F0010FFBD1BDE8F0870022192165
:1017C000204608F039FB33462A463946404607F0A2
:1017D0009FFD2046BDE8F047074A192108F02CBBC1
:1017E0003001002038010020240100202C010020BD
:1017F0000002030000B002403117000808B54FF0A6
:10180000030CCDF800C000F0C3F808BD08B54FF0D8
:10181000040CCDF800C000F0BBF808BD08B54FF0CF
:10182000020CCDF800C000F0B3F808BD08B54FF0C9
:10183000000CCDF800C000F0ABF808BD08B54FF0C3
:10184000000CCDF800C000F0A3F808BD00B583B0CF
:1018500011F024FF0021009103460191034A0C215D
:10186000034802F02BFF03B000BD0000B5400208A2
:101870003452030800B583B011F010FF002100912D
:1018800003460191034A0321034802F017FF03B006
:1018900000BD0000294302088453030800B583B04B
:1018A00011F0FCFE0021009103460191034A06213C
:1018B000034802F003FF03B000BD000081450208A9
:1018C0007856030800B583B011F0E8FE00210091BE
:1018D00003460191034A0721034802F0EFFE03B0DB
:1018E00000BD0000094A02082057030800B583B074
:1018F00011F0D4FE0021009103460191034A032117
:10190000034802F0DBFE03B000BD0000514D0208A9
:10191000205B030870B515460E461C461A4617494B
:1019200007F0FBF922461649304607F0F6F9134B4B
:10193000154803F54852DFF84CC0A2F5C841C0F87D
:1019400000C0C3604261C163002101618161016423
:10195000C16141624163012141EA0441416401687E
:1019600041F001010160016811F0010FFBD1224635
:101970002946BDE87040054807F0CFB9149D002006
:1019800014CF00200002020000B00240146B0020BF
:1019900070B50D4614460E49049E07F0FBF90D483C
:1019A0000B494FF481320260C160C56300210161BF
:1019B0000164C1614663012141EA04414164016857
:1019C00041F001010160016811F0010FFBD170BD10
:1019D000146B002000B0024030B4104B0E4C4FF49A
:1019E0008135DDF808C01D60D860DC630020186117
:1019F0001864C3F81CC05863012040EA02405864D0
:101A0000186840F001001860186810F0010FFBD151
:101A100030BC014807F0BEB9146B002000B0024092
:101A20004FF07F4383B08B4304BF03B0704780F017
:101A30007F40009081F07F40019013481149016080
:101A4000C0F80CD001A9416102A9C1634FF48031F3
:101A500041EA0261C161C2F1FF0109064162002150
:101A600041634FF001114164016841F001010160DF
:101A7000016811F0010FFBD1029803B080F07F40A4
:101A8000704700000002020000B0024070472DE9DC
:101A9000FC470E465FEA00097FD003F023FE48466C
:101AA00002F0D8FA009090F85470D0F85880456B46
:101AB000C46C684602F022FBB8F1000F04D0314636
:101AC00048464246904761E0122E18D006DC082EA8
:101AD00043D0102E3CD0112E06D112E0132E21D06F
:101AE0001D2E43D01E2E3DD0202E4FDB17B1484671
:101AF00015F07FFAB1B248461CF010FA60B3611CD1
:101B000027E04DB3284602F0A5FA0546214601908C
:101B100004F0D0FF4419204604F07AFF0146234622
:101B2000012210E0C5B1284602F094FA054621468C
:101B3000019004F0BFFF4419204604F069FF0146FC
:101B400023464FF0FF32484614F0FCFB01A81BE08F
:101B5000611E484600F0B3FA18E0BCB1611E484669
:101B600000F0ADFA484615F044FA0FE0484602F09E
:101B700071FA0090012F12D0012180F854102146F3
:101B8000484600F09CFA684602F0B8FA484612F05F
:101B9000CDF900E001E005F09FF8BDE8FC870021E9
:101BA00080F85410EFE7FEB544680546204613F070
:101BB0003DF906462946204610F0FCFE002837D0A5
:101BC00028680F2830D004DC0B2832D00E2853D1DF
:101BD0003AE0A0F58070133804D0A0F580702D385D
:101BE0004AD110E0204612F065FB204600211FF08C
:101BF000ACF8204602F02EFA0190C06F002112F0DE
:101C000020FB01A81DE0E86860B1017A29B10168F4
:101C1000204600F016F9012100E00221204612F0D2
:101C200058FA29E00321F9E7012120461FF08DF839
:101C3000FEBD204602F00EFA0090343002F068F942
:101C4000684602F05BFA17E0B6B1E868416800291F
:101C500012DD01681B290FD006DC09290CD00A29E6
:101C60000AD00D2904D107E0212905D0222903D06B
:101C70002046FFF70CFFFEBD284611F091FBFEBD8C
:101C8000F0B587B00DF1300E9EE8F0104FF0000E69
:101C90008DE8F05000F002F807B0F0BD2DE9F04FEC
:101CA00085B01F46DDE91254DDE90E6A904689468B
:101CB000834603F017FD0DF1040C4AF480501F49D0
:101CC000583400968CE813003B4642464946584635
:101CD00011F0AEFA04002AD002F0BCF910220490F0
:101CE000119911F069F804981C2215496030FEF72B
:101CF000A7FA049A012082F85500681C00D0012040
:101D000082F88000002D00DC08252DB21587002008
:101D10005087506304A86D1C02F0F0F92946204654
:101D20001BF01DFD18B9204611F072FB002404F0D1
:101D3000D3FF05B02046BDE8F08F0000A71B0008C8
:101D4000CC0A0020F8B515460E46040021D003F059
:101D5000C9FC65B1002332461946204611F02AFA23
:101D60000546204602F076F90090C5670CE0204653
:101D700002F070F90090C06F11F035FB009900205F
:101D8000C867204612F0D2F8684602F0B7F904F0AE
:101D9000A3FFF8BD0148806870470000CC0A00200E
:101DA00038B504000DD003F09DFC204602F052F936
:101DB0000090846E684602F0A1F904F08DFF204681
:101DC00038BD002038BD38B505004FF000040BD0F9
:101DD00003F088FC284602F03DF90090846C6846C8
:101DE00002F08CF904F078FF204638BDF8B51546AE
:101DF0000C46060013D003F075FC304602F02AF9B9
:101E0000009038B1022C05D200EB840045673046C3
:101E100012F08CF8684602F071F904F05DFFF8BD2D
:101E200070B50D46044603F05DFC34B129462046EA
:101E300000F045F9204612F079F8BDE8704004F052
:101E40004BBF2DE9F04186B00C46060055D003F09B
:101E500049FC304602F0FEF80090406B98B302F067
:101E6000F9F803900098806E04F0C2FB804630467B
:101E700011F08EFD0746039803F076FB05460098A7
:101E800090F8601001F00301012916D002290DD04D
:101E9000416EC06A00680844241A641E039805F065
:101EA0000BFF0146002C0FDA002115E0781B401CC7
:101EB00000EBD070A4EB6004F0E7406E791B081AC9
:101EC000241A641CEAE713E0AC4205DC0246214612
:101ED000039805F091FE0146304600F0F0F803A8A3
:101EE00002F00CF9404604F083FB304612F01EF875
:101EF000684602F003F904F0EFFE06B0BDE8F08199
:101F00002DE9F8431D46DDE9084916460F4680468F
:101F100003F0E8FB5FEA080040D002F09BF821499B
:101F2000009081652049C1650021C0E91271E0E996
:101F30000F650121047280F81A90017690F84470C0
:101F4000684602F0DBF887B128461AF03EFC0546E9
:101F500030461AF03AFC0CB1401C6D1C854200DD85
:101F600028460146404600F03FF8404621F07CFA02
:101F7000404602F06FF8009000F08CF80B490978A9
:101F8000884205D10098C16C4046491C00F097F882
:101F9000684602F0B3F8404611F0C8FF04F09CFE1A
:101FA000BDE8F883C55A01086934020864030020BB
:101FB00000294FF0100101D010F090BD10F0D2BCFC
:101FC00038B50D4604000ED003F08CFB204602F01D
:101FD00041F800908566204611F0A8FF684602F09F
:101FE0008DF804F079FE38BD7CB50C46060033D080
:101FF00003F078FB304602F02DF80090B0F938106D
:10200000458FA14223D012DD406B80B102F022F84F
:10201000019005F051FEA04206DD2146019804F032
:1020200049FD019A0021115401A802F067F86846A1
:1020300002F064F8611B3046491C1BF090FB3046EF
:1020400002F008F800900487304611F06FFF6846F0
:1020500002F054F804F040FE7CBDF8B515460C467D
:10206000060013D003F03EFB304601F0F3FF009072
:1020700038B1022C05D200EB8400C566304611F061
:1020800055FF684602F03AF804F026FEF8BD00223B
:1020900020F02EBE38B50546406B002468B101F033
:1020A000D9FF00900446E96C04F004FD204404F0DC
:1020B000AFFC0446684602F021F8204638BD1CB546
:1020C0000C4601F0C7FF0090406BF0B101F0C2FF79
:1020D000019005F0F1FD009991F8542002B1012220
:1020E000002C00DA0024844200DD0446B1F93800F7
:1020F000801AA04200DA0446C86CA04200D0CC642A
:102100000020086501A801F0F9FF684601F0F6FF1C
:102110001CBD00000149086070470000143C0140EC
:10212000837921490268002B34D00B6823EA02022C
:102130000A60091D0A6803689A430A60017901F17F
:10214000804101F59E310A6803681A430A60174B03
:1021500019680268914319601A1D1168D0F800C00F
:1021600021EA0C0111604179102908D001F1804168
:1021700001F59E310A6800681043086070471968CD
:10218000D0F800C041EA0C011960116800680843EA
:1021900010607047007900F1804000F59E300168C2
:1021A0009143016070470000003C0140083C014041
:1021B00000234FF02042102808BF506E0CD0B0F51D
:1021C000807F08BFD2F8840006D0B0F5805F0CBFD6
:1021D000D2F8A400D2F8580131EA000008BF012368
:1021E00018467047D0E90012114382686FF01F0350
:1021F000C06803EB421242EA402008434FF02041FE
:10220000C1F85001704700002DE9F0010368990002
:10221000A1F1C041D1F84011D0E9012C42EA0C02F1
:10222000D0E903C44CEA040C42EA0C02D0F814C012
:10223000C56942EA0C02D0F818C0046A42EA0C02EE
:102240002A43D0F824C022436FF30E0142EA0C0265
:102250000A434FF02041002B08BFC1F840210FD0A6
:10226000D1F840312C436FF30E034CEA03032343B0
:10227000C1F8403103689B00A3F1C043C3F840217B
:102280006FF0FF04250202686FF00F0C23039AB36E
:102290009200A2F1C042D2F8482102F07046826A50
:1022A000D2F8048017680CEB081C7F1E47EA0C0C60
:1022B000976804EB07244CEA040C148A05EB0444E9
:1022C0004CEA040CD1F848414CEA060CD568928AD5
:1022D0002D0303EB0252A5F5805504F070442A4308
:1022E0002243C1F8482100688000A0F1C040C0F836
:1022F00048C1BDE8F0017047FFE7D1F84821806A86
:1023000002F07042476806680CEB071C761E46EA2E
:102310000C0C866804EB06244CEA040C0D4EC468D1
:1023200006EB04344CEA040C048A05EB04444CEA42
:10233000040C848A007E03EB04534CEA03034FF041
:102340007F4C0CEB006018431043C1F84801BDE816
:10235000F001704700F0FFFF4FF02041D1F8542109
:1023600042EA4000C1F8540170472DE9F04389B0BA
:10237000984615460F4606004FF000042CD000F09A
:10238000A7FB0446304600F08AFB814603F0AAF919
:1023900003A9304600F035FDF80706D0BDF91C0052
:1023A0008221001B401B401C08E0B807BDF9180043
:1023B000284402D540F2022100E002210096CDE936
:1023C000018123461A464946FEF710FB04460021C8
:1023D000FEF7E8FC04F080FC09B02046BDE8F0837D
:1023E00010B50823FFF7C1FF0446054A0021FEF798
:1023F000EAFC0449204611F0AEFF204610BD000063
:10240000D97201086D5002082DE9F0470446406872
:102410008EB00027804601F01DFE0090B0F87CA031
:10242000D0F86890D0F88060D0F88850C06D00B1C6
:102430000768684601F062FE05E069682046884743
:10244000002843D12D68002DF7D12068172853D0DC
:102450000CDC0F283DD004DC0B2877D00D2825D1CB
:102460008BE0112810D0142820D13BE0262846D03C
:1024700004DC1E2851D0202818D18AE02A2816D042
:10248000B0F5107F12D128E04046E56801F0E2FD8A
:102490000290697A39B9297A012904D130F87C1F70
:1024A00041F48071018002A801F028FE75E04046E9
:1024B00001F0D0FD0090E16811B1C0F8841002E095
:1024C000D0F88400E060684601F018FE0EB0BDE868
:1024D000F087D7B34046B8475FE0214640461DF03D
:1024E0003BFDF3E705A9404600F08BFCE068069948
:1024F000016007994160E9E7C4F80C90E6E7E068FD
:102500000228E3D1CDF83080E0680D9027200A90B2
:102510000AA9A06812F09AFED8E7E068012804D062
:102520000021404600F00EFBD0E7304611F06BFD75
:1025300068B1304611F0D4FF304611F023FC98B159
:102540000121304610F0CAFA0EE026E02FE048469E
:1025500012F01AF80646404601F07CFD0090C0F8E3
:102560008060684601F0CAFD0121404600F0EAFAA9
:10257000002EABD10020E060A8E75FEA0A700CD41F
:10258000E068C06848B1007A38B1404611F0A8FF51
:1025900003E0214640461CF066FC2146404610F010
:1025A00009FA002892D0204610F0FAFE8EE7404645
:1025B00001F050FD0090703001F0AAFC684673E70E
:1025C000F0B587B0B0F908400DF10C0C0C9E87698E
:1025D00045688CE8F000448A0025CDE90015029496
:1025E000B0F90C10B0F91050B0F90E40B0F90A0073
:1025F000194410442B46224600F002F807B0F0BD03
:102600002DE9F04F8BB09846DDE9155691468A4684
:102610008346149F1A9C03F065F83348603445F4F0
:102620008055CDE90204CDE9007543464A4651463E
:10263000584610F0FDFD04004FD001F00BFD302294
:102640000490179910F0B8FB0498282227493430D9
:10265000FDF7F6FD04981999244F4166A0F87C60B7
:102660000026C0F88060C666083FC0F888607968B8
:10267000C16504A801F042FD05A9204600F0C1FB98
:102680001B4841F2827103960094CDE90110BDF917
:102690001E00BDF91A10BDF91C20431ABDF918001F
:1026A0005B1C121A521C10F0C3FD06467868416884
:1026B00020468847204601F0CDFC0490866604A899
:1026C00001F01CFD42F20400054202D1204610F048
:1026D00038FF2046189900F0FEFA04F0FDFA0BB01E
:1026E0002046BDE8F08F000009240008E405002022
:1026F000093100082DE9F041044694B0006800F06B
:10270000B7F908B1D94D01E0D84D2C3560681528CE
:102710001ED00CDC0B281FD004DC00287ED005283E
:102720007DD12FE10E287BD01228F9D141E1162866
:1027300006D0172808D0182808D01C28F0D109E0A6
:10274000E86914B0BDE8F081286AFAE7686AF8E73A
:10275000A86AF6E76869F4E720680B901C200C90E3
:10276000206801F077FC0390016D0BA888470646AE
:1027700003A801F0C3FC022E0FDB95E807008DE8EB
:102780000700D4E904023346A16905F029F820695D
:102790008719A069A0EB06082CE0286803F011FF58
:1027A0002169E8690A18521E606902F0E5FBA26916
:1027B000E869111A491C606902F0DEFBD4E90407DC
:1027C0007F1C394602F028FC3946A06902F024FC3F
:1027D000686803F0F6FE20693946401C02F01CFCD4
:1027E000A0693946401E02F017FCA0692769A0F1D4
:1027F0000208BF1C286803F0E4FE424639466069BF
:1028000002F0BAFB686803F0DCFE606942463946B4
:10281000401C02F0B1FB686A022802E015E1B0E05A
:1028200000E10BDDA86803F0CCFE61696A6A881CD0
:102830008B180146424638465B1E27E0296AB142A2
:1028400026DD6069022E074600F1020801DB3744ED
:1028500001E007F10207206901DB304401E000F1EB
:10286000020022693B460A444146A2F1010202F0FD
:102870002FFD022E02DBA069821B01E0A269921EDD
:10288000A069E9693B46401A4146401C02F020FD20
:10289000022E02DB6069064401E06669B61CE76946
:1028A00028687F1E03F08DFE3A463146206902F00B
:1028B00023FC3A463146A06902F01EFCE7696868CD
:1028C000BF1E03F07EFE20693A463146401C02F0EE
:1028D00013FCA0693A463146401E02F00DFCE8693F
:1028E000022802DC286A022823DDA86A022802DD09
:1028F000E1690F1A01E0E769BF1EA86803F061FEF5
:10290000E969022909DD20693B46421800F1020C01
:1029100031466046521E02F0DBFC286A022808DDC0
:10292000A269E8693B46101A3146401C921E02F02B
:10293000CFFC286803F045FED4E90620216902F0A7
:102940001BFB686803F03DFED4E906202169401EA8
:10295000491C521E02F010FBA86A022811DDA16971
:102960002669E469A1F10208271AA41EB61C7F1C7F
:10297000A86803F026FE234642463946304602F058
:10298000A7FC71E0208A00B2ADF81400A18A09B258
:10299000ADF81610228B12B2ADF81820A38B1BB223
:1029A000ADF81A302C69ED68CDE9005402F0A8FAB0
:1029B0005AE0208A298B0844ADF81400A08AADF8AB
:1029C0001600208B298B401AADF81800A08BADF8AB
:1029D0001A00206801F03EFB0390006FF0B1022066
:1029E00003F0A8FE039890F87C10C1F3C00100EB3F
:1029F0008100006C03F0E5FD0398406B03F0F8FDE7
:102A00000398006F01F026FB03990990B1F95A2051
:102A100005A902F0B9F809A801F070FB03A801F0BC
:102A20006DFB21E0208AADF81400A08AADF81600F5
:102A3000208BADF81800A08BADF81A00A86803F041
:102A4000C0FD05A802F070FC0EE0206801F002FB5A
:102A5000039030F85A1F41F00C01018003A801F0E7
:102A60004DFB206811F0C2FD00206AE62006002020
:102A700038B505004FF000040FD002F033FE2846B1
:102A800001F0E8FA009090F87C00000700D50124DE
:102A9000684601F033FB04F01FF9204638BD38B515
:102AA00005004FF0000411D002F01CFE284601F092
:102AB000D1FA0090C06D00218068026828469047D6
:102AC0000446684601F01AFB04F006F9204638BDBA
:102AD00030B587B005004FF0000413D002F002FEBD
:102AE00001A9284600F08DF9284601F0B3FA0090BC
:102AF000B0F95440684601F001FB0CB9BDF904403F
:102B000004F0EAF807B0204630BD10B5040008D044
:102B100002F0E8FD20461BF0A3FEBDE8104004F0E3
:102B2000DBB810BD10B504000BD002F0DBFD204671
:102B30001FF036F820461FF007F8BDE8104004F0FB
:102B4000CBB810BD70B50D46040009D002F0CAFD27
:102B5000294620461FF0B4F8BDE8704004F0BCB828
:102B600070BD2DE9FF410D46804602F0BBFD5FEAD6
:102B7000080049D001F06EFA009000F0A9F907466C
:102B80000098B0F95610C4696E1A2FE0204601F083
:102B900061FA0390D0E90010CDE901100098B0F976
:102BA0000210B0F900004A42414201A803F020FBA4
:102BB0000099BDF90600B1F95610884211D1BDF94E
:102BC0000A10081A401CB8420BD10398324690F8FC
:102BD0002800000601D5714200E01146204611F0A0
:102BE00069FA0398046A03A801F088FA002CCDD191
:102BF0000098A0F85650684601F080FA404600F070
:102C00004CFA404611F092F9BDE8FF4104F064B877
:102C1000074A0649054B1160064A083BD1695860CE
:102C20001B68C2E906300846704700001406002001
:102C3000E0050020E40500202DE9FC410D4680461A
:102C400002F050FD5FEA080028D001F003FA01907D
:102C5000C16D8C6800F03CF907460198456301A8F6
:102C600001F04CFA2268012140469047064622684E
:102C70000321404690470546226800214046904780
:102C80000446404600F009FA2B4632463946404693
:102C9000009400F092F9404611F048F904F01CF855
:102CA000BDE8FC8138B50C46050013D002F01AFDD2
:102CB000284601F0CFF9009030F87C1F14B141F0A4
:102CC000100101E021F010010180684601F016FAC0
:102CD00004F002F838BD7CB50D4604001DD002F0AA
:102CE00001FD204601F0B6F90090006F01906846A2
:102CF00001F004FA294601A805F034F958B120463C
:102D000001F0A8F9009001990167684601F0F6F911
:102D1000204611F00BF903F0DFFF7CBD38B50C46FF
:102D2000050013D002F0DEFC284601F093F9009074
:102D3000B0F95A10A14204D0A0F85A40284611F028
:102D4000F5F8684601F0DAF903F0C6FF38BD000077
:102D500038B50C46050015D002F0C4FC284601F039
:102D600079F90022CDF8000000EB8201521C0C64BE
:102D7000022AF9D3684601F0C1F9284611F0D6F8C5
:102D800003F0AAFF38BD2DE9FC470D465FEA0009B4
:102D90004FF0000432D002F0A5FC484601F05AF989
:102DA0000190B0F95440A54223D000F091F880463C
:102DB00001980121A0F85450C06D856848462A68E2
:102DC000904707462A6803214846904706462A68E6
:102DD0000021484690470546484600F05EF93346D4
:102DE0003A4641464846009500F0E7F8484611F05B
:102DF0009DF801A801F082F903F06EFF2046BDE8BE
:102E0000FC872DE9F34F85B000270C46B84605989E
:102E100001F020F90090C06D0121856805982A68AD
:102E2000904782462A6803210598904704902A68B3
:102E300002210598904703902A6800210598904741
:102E40000646009811F06FFE8346009811F072FE5E
:102E50008146009890F83210890601D5B0F9588063
:102E600000F036F805460098C06E10B110F0A7FDCE
:102E7000074625806780A4F804A0049AABEB020003
:102E800006EB0802401E2A4420813A44E280039B5C
:102E9000A9EB0302521E6281A4F80CA020827019D3
:102EA000E681401E6082684601F028F9B4F90C0002
:102EB0000190B4F91000029002AA01A9059800F04F
:102EC00039F80198A0810298208207B0BDE8F08F00
:102ED00010B50146002091F83220920607D5B1F9CD
:102EE0005400002803D1486B02F06DFB801C10BD1C
:102EF00070B58AB00C46054601F0ACF80990C06D7B
:102F0000866809A801F0FAF8009534B1012C06D0C2
:102F1000022C0BD0032C04D10AE0182000E016206C
:102F200001907168684688470AB070BD1520F7E7C0
:102F30001720F5E72DE9FC4117468846044601F0C5
:102F400089F80090C16D056868468E6801F0D6F872
:102F500032680021204690470646204610F0C5FB07
:102F600027E000BF01F076F80190B0F900102AB216
:102F7000B0F90430891A9A1AB0F90230A3EB25434C
:102F8000B34210D190F82800000605D53868884271
:102F900009DB491E396006E0D8F80000904202DCE7
:102FA000521CC8F8002001A801F0A8F8204610F033
:102FB00049FC0400D6D1BDE8FC812DE9FF4F83B068
:102FC0000E460746DDF8409001F044F80190C16DCF
:102FD0008D68FFF77DFF044601A801F08FF82A688D
:102FE00001213846904783462A6803213846904796
:102FF00082462A680021384690470546B44207D1E8
:1030000005998B4504D106998A4501D14D4541D09A
:10301000A41B0026B046384610F067FB38E001F0EC
:1030200019F80090806A010601D5800502E081054B
:1030300028D50006002825DB24B122461146384653
:1030400011F085F8009890F8280000060AD5069837
:10305000A5EB0902A0EB0A0004FB16013846761C1A
:1030600011F028F80098008D80050BD50599A5EB87
:103070000902ABEB010004FB080108F10108384626
:1030800011F018F8684601F039F8384610F0DAFB0C
:103090000700C4D107B0BDE8F08F70B586B0064612
:1030A00000F0D8FF0590D0E91A4505A801F026F8F0
:1030B00054EA050026D069463046FFF7A2FEACB1BF
:1030C000BDF90620BDF90410204610F0B7FFBDF988
:1030D0000A00BDF90610421ABDF90800BDF9041036
:1030E000521C411A2046491C11F0D5FA002D09D076
:1030F000BDF90600BDF90210421ABDF904102846B8
:1031000010F09CFF06B070BD2DE9F0430446406806
:1031100089B0054610F0A3FB814600F09BFF0290AA
:10312000D0F84880D0F88070466E02A800F0E6FF24
:103130002068172853D008DC0E283AD00F2811D069
:1031400014284CD015283DD149E01E281ED01F2838
:103150002AD0222840D0312834D10020E06009B0A4
:10316000BDE8F0836FF070414046884503D006F01B
:1031700019FE01F057FA002EF1D0D4E902122068AE
:10318000CDE90405CDE9061204A81FE0E068002897
:10319000E5D02FB1AF4203D0384611F0A1F9DEE7F8
:1031A000284611F0F1F9DAE7214648460FF002FC13
:1031B000D5E7E0684168002904DD00680928EFD000
:1031C0000A2805D05EB12046C4F80490B047C6E78F
:1031D000284611F0E8F9C2E7C4F80C80BFE72046A2
:1031E00010F0DEF8BBE7000010B504460A2812D044
:1031F0000D2C14D002F076FA09480068C069016805
:10320000204688470748016809B120468847BDE83D
:10321000104003F061BDBDE8104001F00BBC10BDD3
:10322000700300209C0300202DE9F0430446C5688C
:1032300087B090468946002003F0CEF9064625B1B6
:10324000287910B146F0020001E026F0020003F0F8
:10325000C3F92069012558B1D4E902128DE826008E
:10326000039563882288046841464846A0471EE0CB
:10327000124F134B214638681B68427CE068984720
:1032800030B9E088012801D0002001E03868806B67
:10329000A288E388A1680095CDE90410CDE9023247
:1032A0000195638822884146484605F00FFE07B025
:1032B0003046BDE8F04303F08FB9000070030020F2
:1032C000680300201CB50024019401AC009400F0B8
:1032D000E7F81CBD2DE9FF4F83B0814606988A466A
:1032E000A0EB0A08109E00200090A2EB09043568AC
:1032F000934654EA080018D02046FDF7FDFA074629
:103300004046FDF7F9FA87420BDA204644468046EC
:103310004846D14682465846DDF818B0069001204E
:103320000090002C07DD204606E007B04846BDE8C7
:10333000F04F00F03BB96042A0420AD04846D9465F
:103340006442C8F1000883464FF0FF37DDF818A04B
:1033500000E001275148B8F1000F11D004EBD471FF
:103360004FEA610B01DACBF1000B4C480068807E1C
:1033700088B3002F02DA30682044306000257BE0FB
:1033800000990029016821D0897E11B1002780466B
:1033900015E007B05A4649465046BDE8F04F05F0E3
:1033A0008DBF28466D1C1EF0D3FE38B9D8F800003A
:1033B00009EB0701406E4268504690477F1CA742C8
:1033C000EFDD6D1E356007B0BDE8F08F8A7E1AB163
:1033D0000027804617E019E0486E5A4651460368B8
:1033E00007B04846BDE8F04F184728466D1C1EF050
:1033F000AFFE38B9D8F8001009EB0700496E4A68EB
:10340000514690477F1CA742EFDDDAE700250FE029
:1034100008FB05B090FBF4F101EB0A00009951B1F3
:103420001E4A09EB05011268526E526890476D1CE6
:10343000A542EDDDC7E7194909EB05030968496EA7
:103440004A6801461846F1E708FB05B090FBF4F125
:1034500001EB0A0001903068384430601EF078FEBD
:1034600048B9009890B10D4809EB05010068406E1D
:103470004268019890476D1CA542E5DD3068002F39
:1034800001DA20443060C01B30609CE7034909EB3F
:1034900005000968496E4A680199EBE7700300204E
:1034A0002DE9FF470F4640491646804609680C98AB
:1034B0001D460A7E012A1CD0A8EB0600791B50EAA3
:1034C00001031CD0A2F1010920F0B2FD00F58060DB
:1034D000824604F036FE00FB09F4504604F036FE46
:1034E00000FB09F1002C0CDAC4F500708012404298
:1034F0000AE00090324639464046FFF7EBFEBDE851
:10350000FF8704F50074A012002904DAC1F50071E8
:1035100089124C4202E001F500718C12002804DD92
:10352000411C01EBD171491003E000EBD07149104F
:10353000401E00EBD0704210002C04DD601C00EB3C
:10354000D070401003E004EBD4704010641E04EB14
:10355000D47308EB0104ADF800403C18ADF802400C
:10356000A8EB02045B10B21AADF80440ADF80820D5
:103570003144FC1AEA1AADF80C102844ADF80A20C0
:10358000ADF80E000023ADF806401A460421684647
:1035900000F07AF83946404616F0DCFF29463046FE
:1035A00016F0D8FFABE7000070030020064A13684E
:1035B0001A7E012A05D0521E02EBD272521000F080
:1035C00005B85A6E52681047700300202DE9F05F6D
:1035D0000646884640F2C32002FB00F14FF47A70A1
:1035E00091FBF0F702FB02F102EBD27001EB600BF2
:1035F0001446B118234A301B7F1C1268526E1368A0
:103600000A4641469847012538E000BF05FB05F012
:1036100004FB040159451CDDBC4219DD194B06EBC6
:10362000050AA6EB05091B68AAF1010208EB0401D3
:103630005B6E09F101001B689847124BAAF1010269
:10364000A8EB04011B6809F101005B6E1B68984739
:10365000641E0C4B3219301B1B68924608EB0501A7
:103660005B6E81461B689847064B5246A8EB0501E6
:103670001B6848465B6E1B6898476D1CBD42C5DDE4
:10368000BDE8F09F700300202DE9FF4F43F6FF7463
:103690000F46664283B09B46814600210BE000BF87
:1036A00009EB8100B0F90200A04200DA0446B04202
:1036B00000DD0646491CB942F2DB674800684069F4
:1036C00000280DD0B0F906101A46A1EB0B01B1424B
:1036D00000DA0E46B0F90200801AA04200DD04466E
:1036E000B4E0DFF878A100200546CAF8000088E0C1
:1036F000781E854201DA6B1C00E0002309EB850C83
:1037000009EB8302BCF90200B2F90210A04244D1D5
:10371000A14215D139F92330059A39F9251003EB67
:10372000020C4D4A05981268084404EB0B01526ED6
:103730006045136801DA62462AE00246604627E0E7
:103740002846A4464FF000087A1E0BE008B1401E40
:1037500000E0781E09EB8003B3F90230634504D121
:1037600008F101089045F1DB2346A34248D01A1B1B
:1037700039F92500A1EB040C059B92EA0C0F09D442
:10378000354A184404EB0B011268526E1368024666
:10379000984735E011F06EFE32E0A14230D001DBF7
:1037A000A04203DDA0422BDBA14229DCE046884297
:1037B0000ADC0346A04223DC0846A14220DBB8F91C
:1037C00000C0B2F9001008E00B46A14218DCA0428C
:1037D00016DBB2F900C0B8F90010E21AA1EB0C0137
:1037E00051430029A0EB030202DD01EB620102E07C
:1037F000A1EB6201491CC01A91FBF0F06044C9E7DB
:103800006D1CBD42FFF674AF0598009004EB0B00F1
:10381000019000208046054613E01149B8F1000FE1
:1038200031F915A009D0009901EB0A0208440A49B0
:103830000968496E0B680199984788F0010850465D
:103840006D1C064909688D42E7DB641CB4427FF7B2
:1038500048AF07B0BDE8F08F70030020040A0020D5
:10386000481D012010B5002002F0A0FE6FF07F403F
:1038700002F0A7FE012002F03FFF002002F04AFF05
:10388000002002F057FF002002F0A6FE0448006866
:1038900002F0AEFEBDE81040002002F0FFBE0000C6
:1038A0006C0300202DE9F001002201255FF00306E2
:1038B000D1F800C005FA02F30CEA030C9C4533D1A1
:1038C00007684FEA420C06FA0CF4A74307600F7929
:1038D000D0F8008007FA0CF747EA080707600F796D
:1038E000012F18BF022F14D18768A74387604F7933
:1038F000D0F8088007FA0CF747EA0807876047689E
:1039000027EA0303436043688F799740BFB23B4384
:103910004360C368A343C360CB7903FA0CF3D0F8C8
:103920000CC043EA0C03C360521C102AC0D3BDE88C
:10393000F00170474B07DB0E9A40C90800EB81008D
:10394000016A4FF00F0C0CFA03F399430162016A0C
:103950001143016270470246002012690A4218BFF3
:103960000120704741837047018370472DE9F0477C
:1039700016460D460746002404F076FF04F074FF57
:10398000BA2004F0ADFF012807D1380A04F0A8FFDF
:10399000012804BFF8B204F0A3FF04F065FFBB20C8
:1039A00004F09EFFDFF8D080344F01283BD1002483
:1039B000002D88BFA5F101090ED94C4504D1002086
:1039C00004F0AEFE305503E0012004F0A9FE3055AE
:1039D000601CC4B2AC42F0D34FF400514046FFF734
:1039E000C1FF0320401EB0F1FF3FFBDC042138463D
:1039F000FFF7B8FF0321491EB1F1FF3FFBDC4FF495
:103A000000514046FFF7B0FF0321491EB1F1FF3FCF
:103A1000FBDC04213846FFF7A7FF0321491EB1F163
:103A2000FF3FFBDC01244FF400514046FFF79AFFB3
:103A30000421491EB1F1FF3FFBDC04213846FFF7AA
:103A400091FF0320401EB0F1FF3FFBDC4FF400511B
:103A50004046FFF789FF0320401EB0F1FF3FFBDC2B
:103A600004213846FFF780FF0320401EB0F1FF3FDE
:103A7000FBDC2046BDE8F08700080240000402405D
:103A8000014AC2E9000170471C030020014AC2E953
:103A90000001704724030020014AC2E90001704779
:103AA0000C040020014AC2E9000170472C030020E9
:103AB000014AC2E900017047140400202DE9F04FCB
:103AC000DFF828B191B04FF0FF35DBF80030B3F9E3
:103AD00022100691DE69B3F92490F469A18981422C
:103AE00006D8E289824203D3471AD4F8008012E054
:103AF000D4E9018100296FD00A8882426CD84D88B0
:103B0000854269D3801A82B2486800EB8200B0F91E
:103B10000070B0F90250781C5ED0307EA17C10FBA2
:103B200001FA217CCDE90701B3F92A60304606F09D
:103B300099F9C0B20E90DBF8000007FB0A81A37C64
:103B4000826B0127CDE90412CDE90273C069089A9E
:103B5000C17E807ECDE90001DDE90603494605F01E
:103B6000B5F9681C18D046F0020006F07BF9DBF8C6
:103B70000000A37C05FB0A81826BCDE90273CDE9CD
:103B80000412C069089AC17E807ECDE90001DDE99A
:103B90000603494605F09AF9DBF800005D46C06966
:103BA000417E007E814214D9022E12D086F004009C
:103BB00006F058F92868C069027EC37E12FB0391A3
:103BC000437E857E089A06984B4412FB050205F059
:103BD0009FFB0E9806F046F9DBF80000627C418CF2
:103BE0001144418411B0BDE8F08F00007003002043
:103BF00004480068C069C06909B1027C0A60407C61
:103C00007047000070030020022008807047C069E0
:103C100082898A4202D8C2898A4210D2806880B1E1
:103C200002888A420DD843888B420AD3406800EB51
:103C30008100A0EB8200B0F90000002801DB012028
:103C400070470020704700002DE9F043304C0346D8
:103C500087B020681946B0F92A60C069C06900F0D1
:103C600086F8002850D041680088181A01EBC0057A
:103C70003046AF7806F0F6F8814620686A6801237E
:103C8000816BCDE90237CDE90421C169CB7E8A7E03
:103C9000CDE900230B7EB0F924102A78B0F9220078
:103CA00005F014F92068C069417E027E91421FD957
:103CB000C07E11FB00F812FB00F7022E18D001F0B5
:103CC000CEFB064601F094FB02F07BFC21682A78CB
:103CD000CB69B1F92200DB7E12FB0302B1F924109B
:103CE00001EB0803394405F013FB304602F069FC90
:103CF000484606F0B7F820686A78C369B0F9221020
:103D00009B7E12FB0311418407B0BDE8F0830000E5
:103D10007003002030B50F4C05460B46206829463D
:103D2000C069C06900F023F8002812D041680088FB
:103D300024682A1A0120E46900EBC200085CA47E12
:103D400010FB04F0002B04D011F8321011FB04F129
:103D5000196030BD7003002001200880704700B555
:103D6000C06900F004F8002800D0012000BD06E082
:103D700002888A4202D842888A4202D28068002899
:103D8000F6D1704770B50025124C19E02069124930
:103D9000C5EB051600EBC60070220968001DFCF794
:103DA0004FFA2069002140F8361000EBC60000F100
:103DB0000C018161011D0A1DC0E90F126D1C4164D7
:103DC000A0688542E2DB01F08DFCBDE8704002F0A6
:103DD00083BF0000440A00207003002070B50F4923
:103DE0000D480860084604F0B5F80C4C143CA06877
:103DF000C0EB0010C500284600F0A6F82A460021B6
:103E0000206104F020F94FF0FF30206002F0B0FF95
:103E1000BDE8704019F0BABAE9EF0108580A00206D
:103E2000F8B50C0005460FD001F05CFC204600F010
:103E300017F8060010D000F00DF9224600902DB1C1
:103E40002946FCF7FDF904E00020F8BD002104F04C
:103E5000FAF8684600F052F902F03EFF3046F8BD2D
:103E600010B5040009D001F03DFC204611F0AAFF76
:103E7000044602F031FF204610BD002010BD38B5C9
:103E8000054601F02FFC2846FFF7EAFF040009D0A1
:103E900000F0E0F82A460021009004F0D4F86846CB
:103EA00000F02CF902F018FF204638BD024A1060DD
:103EB00021F0030050607047A81C012010B50400D9
:103EC00016D001F00FFC0B48406B10F8341059B1BC
:103ED000022909D2042101EBC4014158486811F0BC
:103EE000E5FA20461DF0C8FCBDE8104002F0F4BE23
:103EF00010BD0000E81B0120002805D0034AD16B4B
:103F0000016001B14860D06370470000E81B0120E8
:103F100010B5044601F0E6FB2068FFF7CFFF002054
:103F20002060BDE8104002F0D7BE000070B50D461D
:103F30000646002405E000BF06EB8400FFF7E8FF1B
:103F4000641CAC42F8DB70BD2DE9F041044619F069
:103F50007FFF2848E41C24F00305016C2D1DA942B5
:103F600000D90D46C46B13E054F8042CAA420ED1BC
:103F700084B1216809B162684A60616809B1226848
:103F80000A60C26BA24231D12168C1632EE024686D
:103F9000002CE9D18046816BC0680F1857F8040CDB
:103FA0003E1A306838B100201DF07EFD57F8040C31
:103FB0003E1A3068D0B97068A84217DB3044441B01
:103FC0003046241D1DF028FDD8F80C10491BC8F8F8
:103FD0000C10D8F814102944C8F814107068401B4D
:103FE00002D0314611F062FA44F8045C2046BDE884
:103FF000F0810000E81B012010B5002419F028FF13
:104000000C490F2001EBC002526C1AB101EBC00049
:10401000406C08E0401EF5D508E04168A14200D997
:104020000C46806810B180680028F6D1A4F10C001D
:1040300010BD0000E81B0120002138B10449042212
:1040400002EBC000496B085841680C3908467047BC
:10405000E81B01200549CA69521CCA61496B01EB82
:10406000C0010A78521C0A7000F060B8E81B0120F9
:104070007CB506460C460846FFF7F2FE050020D048
:10408000FEB13046FFF7D8FFA04200DA044601F047
:1040900029FB2846FFF7DEFF00903046FFF7DAFFE6
:1040A0000146019022460098FCF7CAF8684600F0E5
:1040B00025F801A800F022F83046FFF7FFFE02F0D5
:1040C0000BFE28467CBD000010B501F00BFBFFF78E
:1040D00093FF64220849B0F5800F04D990FBF2F4F5
:1040E000086A444303E0096A4143B1FBF2F402F079
:1040F000F3FD204610BD0000E81B01200A490268BC
:104100004B6B52F8082C03EBC2021378022B03D33B
:10411000CB690BB15B1ECB611178491E1170002178
:104120000160084670470000E81B0120002806D007
:104130000349042202EBC000496B0858083070475D
:10414000E81B01202DE9FC414FF000060B465FEA19
:10415000000834462BD032B111461846FFF760FEF6
:10416000060000D101244046FFF774FF0090078845
:1041700045686846FFF7C2FFCCB9B9002846091D5B
:10418000FFF776FF050015D0FFF764FF019040F8B8
:10419000276001A8FFF7B2FF4046FFF75BFF0090E2
:1041A00045600188491C01806846FFF7A7FF20464B
:1041B000BDE8FC813046FFF781FE0124F7E70820C7
:1041C000FFF75DBE7CB5050023D0FFF743FF0090ED
:1041D0004068C0B1FFF73EFF0024019005E0019860
:1041E00000EB8400FFF794FE641C00980088A04256
:1041F000F5DC01A8FFF782FF0098001DFFF788FE9D
:104200000099002008806846FFF778FF2846FFF7EE
:1042100055FE7CBD7CB50C46FFF71CFF0090018865
:10422000A14220D94568F5B101F05CFA2846FFF7B4
:1042300011FF019000EB8400FFF76AFE00990888E7
:10424000401E80B20880401E019905E001EB840207
:10425000526841F82420641C8442F7DD01A8FFF76E
:104260004DFF02F039FD6846FFF748FF7CBD38B5C9
:10427000002430B1FFF7EEFE009004886846FFF797
:104280003DFF204638BD38B50D46002448B1FFF744
:10429000E1FE2946009000F05BF804466846FFF70F
:1042A0002DFF204638BD38B50D46002448B1FFF734
:1042B000D1FE2946009000F05DF804466846FFF7FD
:1042C0001DFF204638BD2DE9FE43984691460D4618
:1042D0000024D0B3FFF7BEFE01900788466801A80E
:1042E000FFF70CFFBD4230D27EB33046FFF7B2FE7F
:1042F000009050F825406846FFF700FF24B12046A3
:10430000FFF79AFE404511D04046FFF7B8FD040084
:104310000CD03046FFF79EFE00EB85050090284646
:10432000FFF7F6FD68462C60FFF7E8FEB9F1000FD5
:104330000BD054B12046FFF78DFE4246494602900D
:10434000FBF77EFF02A8FFF7D9FE2046BDE8FE83FB
:1043500038B50D4601880024A94209D9406838B112
:10436000FFF778FE009050F825406846FFF7C6FE3C
:10437000204638BD10B50024FFF7EAFF10B1FFF763
:1043800069FE0446204610BD70B50C46054601F096
:10439000DFF9C1B223462846BDE87040002200F094
:1043A00001B80000F0B52D271C68B0F1004F08D00F
:1043B000002600280DDA651C1D602770404201248C
:1043C00008E0651C01261D606FF000402770491E43
:1043D00001E00024091BC9B22AB3491EC9B222E078
:1043E0000C46491EC9B2944205D1124C27781C686C
:1043F000651C1D602770104C54F8215090FBF5F49B
:10440000E4B20A2C11D804FB150011B90EB1641CDA
:10441000E4B20A2C02D10124491CC9B21D686F1CE8
:1044200030341F602C700029DAD119680020087020
:10443000F0BD000064030020242C040810B51368AC
:1044400008290DD85C18146000222270054A04E087
:1044500000F00F040009145D5C54491EC9B2F7D284
:1044600010BD0000C885040810B5002807DD0A68E3
:104470002B24531C0B601470096800220A7010BDB5
:1044800010B5044601F02EF9044904EB840001EB59
:104490008000447902F020FC204610BD481E012017
:1044A0002DE9FC5F8946044601F01CF9484600F0FE
:1044B000E3FF2C4E09EB8907824656F8270001904E
:1044C00029484FF00108016841B92749C0F8008028
:1044D000091D26480860084603F03CFD214A09EB07
:1044E00089015FEA0A0002EB81051BD002F00AF89D
:1044F00083464FF07F4002F059F800F093F8002215
:104500001146206800F03EFC206842880188504631
:1045100002F0A6F846F8274085F80580584601F0D5
:10452000F1FF17E046F8274085F8058028694646E0
:1045300018B101F017FF0020286174B10096E868F7
:10454000A1684B46421AA8686168411A206801F0C8
:1045500063FF286148461EF013FC02F0BDFB019882
:10456000BDE8FC9F481E0120280C00200DF001082A
:1045700070B514460D46064601F0B4F8204600F02A
:104580007BFF0300174804EB840109D050F8210099
:1045900041688068711A2A1A184602F051F81CE026
:1045A00000EB8104A268B24201D0012200E00022A7
:1045B000E368AB4201D0012300E000231A430CD092
:1045C000236943B150F82100816840686A1A311AA2
:1045D000184601F0ECFEC4E90265BDE8704002F047
:1045E0007BBB0000481E012010B5C2B2CBB2D21A6C
:1045F00000D5524293B25B43C0F30722C1F30724B4
:10460000121B00D55242000C92B2A0EB114002FBEB
:10461000023200B2002801DA404200B280B200FB50
:10462000002010BD10B50021084600F0E1FF43F660
:10463000FF725042BDE8104013460146AFF30080C0
:104640002DE9FC411C4615460E46074601F04AF886
:10465000042005F007FC80461248C068C16C006D5C
:104660000F4406440D440444ADF80070ADF8045006
:10467000ADF80260ADF80640684610F063FA07E056
:1046800023462A463146384604F042FE10F0F0F93F
:104690000028F5D1404605F0E5FB02F01DFBBDE822
:1046A000FC81000064030020B0F90630B0F904205A
:1046B000B0F90210B0F90000FFF7C2BF2DE9F843CE
:1046C0001C00DDE9089816460F46054602D10EF09B
:1046D000E5FF044600962E6843464A462146284692
:1046E000B047060039D00EF0CEFF8146698A3046C9
:1046F0000EF0F4F9304610F084F8484610F081F8D6
:104700004FF000080CE000BFCDF8008055F81CCF3A
:1047100000231A4649462846E04700B310F071F8D6
:104720007F1E002FF0DC1D2148460FF0F4FD601CB9
:1047300012D000F0D7FF0EF0F5FF30B1FFF7F6FC16
:104740008469B44201D02000F8D1B44202D030468E
:104750000FF01AFF02F0C0FA3046BDE8F883304689
:104760000EF056FE0020F8E72DE9F0411C461646F3
:104770000D460746022B02DB0020BDE8F0811C201D
:10478000FFF7E2FB0028F8D00DB105610AE0094A05
:1047900052F8241009B905E011460A68002AFBD135
:1047A0000969016184618682002101604160C0E97C
:1047B0000217E2E78803002070B51D46FFF7D4FF1B
:1047C000040009D000F00EF8E068006820B9034842
:1047D000006800EB85008465204670BD70030020F2
:1047E000FFF78ABB70B590B38269022A30DA1E4C9B
:1047F00054F8221019B944F8220032E019464B68E7
:10480000002BFBD106E0CB68C5681B682D68AB4266
:1048100003DD09680029F6D11AE0C1B1CB68C6688A
:104820001B683668B3420CD1838A012B05D008E09F
:104830001946DB681B68AB4203DB0B68002BF7D122
:1048400029B14B6833B118604A68426004E0FFE761
:10485000012070BD44F822004860884200D1002148
:104860000160002070BD00008803002010B503E047
:104870000468FFF7B7FF20460028F9D110BD1EF0ED
:10488000DBBD00002DE9F0410026DFF834800D4F3C
:10489000354600BF58F8254009E0E0680068385CFC
:1048A00020B120461EF0C8FD266026462468002C54
:1048B000F3D16D1C022DEDDB3046BDE8F081000028
:1048C000880300200C5C0308022801DB00207047ED
:1048D000054A52F8200004E0C26812688A42F6D005
:1048E00000680028F8D1704788030020022801DB07
:1048F00000207047054951F8200004E0C1680968AC
:104900000029F6D000680028F8D1704788030020FD
:10491000F8B5074615460E460C20FFF7B0FA04001E
:104920000FD000F0DFFE2046FFF794FB0649009011
:10493000C0E90017068145816846FFF7DFFB02F0FA
:10494000CBF92046F8BD00004C8404082DE9F8435B
:104950001D461646884604000CD0FFF77BFB0090EE
:10496000006807686846FFF7C9FB2B463246414698
:104970002046B847BDE8F88338B504004FF0000082
:104980000AD02046FFF766FB00900068456868463D
:10499000FFF7B4FB2046A84738BD38B504004FF0F8
:1049A00000000AD02046FFF755FB0090006885689C
:1049B0006846FFF7A3FB2046A84738BD10B504465C
:1049C00000F090FE2046FCF79DFDBDE8104002F08F
:1049D00083B9000070B514460D46064600F082FE0D
:1049E0000548016830464D848C84FCF78BFDBDE89A
:1049F000704002F071B900007003002070B50C46E1
:104A0000054602E02846FFF7D9FF641EFAD570BDBF
:104A10007FB51E4614460D46CDF80CD003AB0022E0
:104A20003146FFF7BFFC22462946684600F098F859
:104A30007FBD000010B500F055FE00F041FD0549B6
:104A400009688A8C10448884088C4884BDE810402A
:104A500002F042B9700300202DE9FC4706005FD048
:104A600000F040FE00F02CFD3C4C81462068B0F97F
:104A7000228000F085FD216807468A8CD01B88843F
:104A800041E000BF47F6FF71304603F0F9F8824677
:104A90000146304603F0CAF82168054691F82C001B
:104AA00000F00300012841D002283BD000204A8CAE
:104AB000101A4884ADF800006A1E1044ADF80400D6
:104AC000888CADF80200A9F101010844ADF8060098
:104AD0006A465146304602F063FB2168BDF8020089
:104AE00088845146304601F0E5FF064430780A28B4
:104AF0001ED00D281CD0BDF8000021682844488431
:104B0000307818B1761C30780028BBD12068818CB1
:104B100039448184818D21F00301818502F0DCF824
:104B2000BDE8FC8705EBD5704010C0E72846BEE71E
:104B3000206890F82C1001F0030101290BD0022904
:104B400009D0018C418431780A29D9D1828C02EBB9
:104B500009018184D4E7A0F82280F4E770030020E3
:104B600070B514460D46064600F0BCFD05480068C9
:104B7000458484843046FFF76FFFBDE8704002F043
:104B8000ABB800007003002047F6FF7300F044B894
:104B90002DE9FF471F460C9E90460D46814696B371
:104BA00000240094019400F09DFDADB128680090B0
:104BB0006868019017480099016001994160284692
:104BC0000FF0B6FD040007D00246294602A803F004
:104BD000C4F802A80FF0ACFD30461DF087FE054674
:104BE0007168684688473B4642466946484602F037
:104BF0002FFB20460FF09CFD28461DF077FE02F0AB
:104C00006BF8BDE8FF87FFE704B0BDE8F04700F0B0
:104C100003B80000340C00202DE9FC411F469046EB
:104C20000D4606004FF000041AD000F05BFD65B1A0
:104C300028460FF07DFD040007D00246294668464D
:104C400003F08BF868460FF073FD3B464246294659
:104C5000304602F0FDFA20460FF06AFD02F03CF803
:104C6000BDE8FC812DE9FF4F87B0904689460700DB
:104C70007DD000F037FDD9F80040D9F8045021B2BA
:104C800028B2401A401C029000F01AFC064618F0A8
:104C90000C0F1ED038460A9A029902F027F808F045
:104CA0000C01042904D0082902D00C2911D104E0F8
:104CB000291400FB1610401C09E02114C1EB254209
:104CC00000FB1620401C00EBD07001EB600060F38D
:104CD0001F4448460FF02CFD5FEA000B09D0024646
:104CE000494604A8CDE9044503F037F804A80FF0BD
:104CF0001FFDA6F1010A38460A9A029903F072F9DB
:104D000003900AEB244060F31F45CDE90045384687
:104D1000039902F08BFF18F003010ED001292CD06B
:104D200002290ED1B9F90420B9F90010521A101A4B
:104D300000EBD07001EB600001E0B9F80000ADF8C5
:104D400000006A463846039902F02AFA38460A9A61
:104D5000029903F03DF9074406EB244060F31F4439
:104D600038780028C7D158460FF0E2FC00E001E097
:104D700001F0B2FF0BB0BDE8F08FB9F80410081ACB
:104D8000401CDCE77CB514460D46064600F0AAFC44
:104D900011480068C16C006D0D4404443188681EE0
:104DA0000844ADF80400ADF800507188601E084456
:104DB000ADF80600ADF8024068460FF0C3FE06E00D
:104DC000224629463046FEF72FFA0FF051FE002802
:104DD000F6D101F081FF7CBD700300201CB50A46AE
:104DE0000146684603F0A8F800F07CFC2548BDF8B1
:104DF0000010006830F84C2F1144ADF80010BDF8D9
:104E0000021082881144ADF80210BDF80410028827
:104E10001144ADF80410BDF8061080880844ADF8C0
:104E2000060068460FF08EFE27E000BFBDF9004087
:104E30000BE000BFBDF90210204604F00BFABDF9EB
:104E40000610204604F006FAA41CBDF90400A04296
:104E5000F0DABDF902400AE0BDF90000214604F095
:104E6000F9F9BDF90400214604F0F4F9A41CBDF9D8
:104E70000600A042F0DA0FF0FBFD0028D6D101F0C9
:104E80002BFF1CBD700300202DE9F04F87B09B461F
:104E9000DDE9109892460C46054600F023FC1648C2
:104EA0000168C86C096D47190E1900EB0A0501EB82
:104EB0000B04ADF81070ADF81450ADF81260ADF8F9
:104EC000164004A80FF03EFE88B1DFF830B04FF076
:104ED000000ACDE90098CDE902BA2B4622463946B0
:104EE000304615F0D1F80FF0C3FD0028F1D101F0E4
:104EF000F3FE07B0BDE8F08F70030020BD920008FC
:104F00002DE9F04F87B09B46DDE9109892460C469C
:104F1000054600F0E7FB16480168C86C096D4719A3
:104F20000E1900EB0A0501EB0B04ADF81070ADF89B
:104F30001450ADF81260ADF8164004A80FF002FE50
:104F400088B1DFF830B04FF0010ACDE90098CDE923
:104F500002BA23462A463146384615F095F80FF036
:104F600087FD0028F1D101F0B7FE07B0BDE8F08F52
:104F700070030020FD9100082DE9FC4114460D4608
:104F8000064600F0AFFB114F3968C86C096D054447
:104F900004440E44ADF80050ADF80440ADF8026092
:104FA000ADF8066068460FF0CDFD08E0386822468F
:104FB0003146406E0368284698470FF059FD002897
:104FC000F4D101F089FEBDE8FC81000070030020EF
:104FD0002DE9F0411C4615460E46074600F082FBBF
:104FE0000C480168C86C096D074405440E440C4424
:104FF00000200FF0A7FD07E023462A463146384639
:10500000FEF760F90FF034FD0028F5D1BDE8F0415E
:1050100001F062BE700300207CB50C46064600F02D
:1050200061FB0F4D2868C16C006D0E440444ADF85F
:105030000460ADF80060ADF80640ADF80240684687
:105040000FF080FD07E028682146406E4268304638
:1050500090470FF00DFD0028F5D101F03DFE7CBD1D
:10506000700300202DE9FC411C4616460D460746FC
:1050700000F038FB1A480168087ECA6C096D1744B5
:105080000D440C44401E391A1644ADF80010311876
:10509000ADF80410291A2044ADF80600ADF802104E
:1050A00068460FF04FFD15E032462946384604F0B9
:1050B000A5F832462146384604F0A0F8621E691C65
:1050C000384604F0FBF8621E691C304604F0F6F81E
:1050D0000FF0CEFC0028E7D101F0FEFDBDE8FC8119
:1050E00070030020B0F90630B0F90420B0F90210C6
:1050F000B0F90000FFF7B6BF7CB514460D46064672
:1051000000F0F0FA0F480068C16C006D0E440544D1
:105110000444ADF80060ADF80460ADF80250ADF89D
:10512000064068460FF00EFD06E02246294630464E
:1051300004F0C4F80FF09CFC0028F6D101F0CCFD7F
:105140007CBD00007003002070B51B4C05466069F3
:10515000E0B904F1240119480860084602F0FAFE9B
:10516000012001F0E7F9002001F0E4F914490023DF
:105170001A4601F11800FFF7F7FA606104F008FB26
:10518000C01DC008E061FEF7DFFE20610D4955B18A
:10519000606808B1012070BD0A686260084A00209A
:1051A0004C320A6070BD626822B101200A600021A1
:1051B000616070BD002070BDB40300204DEF010898
:1051C000685C03081C04002070B50C46054600F01E
:1051D0005DF910B10121C0E9001400F083FA2846FE
:1051E0000FF0C8FBBDE8704001F076BD10B5044675
:1051F00001F09AFD04490968002903D02046BDE862
:105200001040084710BD0000E40C002030B59DB0F0
:105210000D460446CDF870D06F220021684602F09A
:1052200012FF64222146684611F0D2FC6846FBF763
:1052300039F81C991CAA08441C900821284601F042
:10524000CBFD6846FFF7D2FF1DB030BD10B500247E
:1052500000E0012400F004F80028FAD1204610BD37
:10526000094810B50068002410B1804700B101243E
:105270000EF07AF900B101240448006810B18047AB
:1052800000B10124204610BD9403002090030020AB
:1052900070B516460C46054600F024FA0B48006827
:1052A000C16C006D0D44044400200FF04BFC06E07F
:1052B000324621462846FEF789F90FF0D9FB00282F
:1052C000F6D1BDE8704001F007BD0000700300207A
:1052D0002DE9FC411C4615460E46074600F002FA31
:1052E00010480068C16C006D0F4406440D4404442E
:1052F000ADF80070ADF80450ADF80260ADF80640AE
:1053000068460FF01FFC07E023462A463146384620
:1053100003F0FEFF0FF0ACFB0028F5D101F0DCFC40
:10532000BDE8FC8170030020B0F90630B0F904201C
:10533000B0F90210B0F90000FFF7CABF08B50B467C
:10534000002805D0009281888268C08800F001F8AA
:1053500008BD10B50828029C30D008DC04FB01F41D
:1053600001280AD0022813D0042804D11CE01028F8
:1053700028D020282CD0002010BD04EBD30003F04F
:105380000701105CC1F10701C84000F0010010BD29
:1053900004EB93000621105C01EA4301C1F1060110
:1053A000C84000F0030010BD04EB5300D907105CA7
:1053B00002D000F00F0010BD000910BD04FB013049
:1053C000105C10BD481004FB003032F8100010BD16
:1053D000881004FB003052F8200010BD034951F83A
:1053E0002000C1688A6A0821104700008803002055
:1053F00010B500F077F904F011F904F00FFA044643
:1054000001F06AFC204610BD10B5044600F06AF9B0
:10541000054800210068C06942682046904704465C
:1054200001F05AFC204610BD7003002070B50C46F8
:10543000054600F057F9064821460068C0694268F1
:1054400028469047044601F047FC204670BD000006
:1054500070030020002801D00EF0F2B8704710B59C
:1054600000F040F904F0E2F804F0D8F9044601F045
:1054700033FC204610BD00000021022802D2024960
:1054800051F8201008467047040400201FB5002181
:105490000191029103912A21009169460EF02CFF9F
:1054A000039804B010BD000010B500F01BF90348CC
:1054B0000068047C01F010FC204610BD7003002041
:1054C00010B500F00FF904480068C069447E01F08F
:1054D00003FC204610BD00007003002070B50D468F
:1054E000044600F0FFF814B909480068C469294669
:1054F00094F82000A87094F82200287194F82100F4
:10550000E870A26820469047BDE8704001F0E4BB17
:105510007003002010B500F0E5F802F07DFB0446B2
:1055200001F0DAFB204610BD70B514460D46064664
:1055300000F0D8F822462946304604F00DF910B1A3
:10554000002028602060BDE8704001F0C5BB70B548
:105550000C46054600F0C6F82146284602F0BAFB84
:10556000BDE8704001F0B8BB10B5044602F0A4FBE2
:1055700001462046BDE8104002F058BB01F0E4BBF4
:1055800010B5002400F0AEF80B48006890F82C101D
:1055900001F00C01042904D0082906D00C2907D1F8
:1055A00003E0C069047E641E02E0C069007E440816
:1055B00001F092FB204610BD70030020417EC07EAA
:1055C00011FB00F07047017EC07E11FB00F07047B8
:1055D000024951F8200000690068704788030020E4
:1055E000024951F820000069406870478803002094
:1055F00070B50D46044600F075F8204618F00EF818
:105600000446284618F012F8044301F065FB2046D2
:1056100070BD0000134810B5016821F00101016060
:1056200011480121816011490160006810498842D8
:1056300000D0FEE701F0E4FC0E492E20087001F0D6
:1056400089FB0D4818F0CCFB1FF046FE04460021F4
:10565000084601F031F80EF0BFFBFEF793FB204641
:1056600010BD0000002000E000300240C2A507F499
:10567000CDB5E8B564030020B41C01202DE9FC4140
:105680001C4615460E46074600F02CF8012000F097
:10569000A3FF804612480068C16C006D0F440644A9
:1056A0000D440444ADF80070ADF80450ADF802604C
:1056B000ADF8064068460FF045FA07E023462A4653
:1056C0003146384603F024FE0FF0D2F90028F5D118
:1056D000404600F081FF01F0FFFABDE8FC810000C8
:1056E0007003002070B5184CE06820B101F024FB75
:1056F0006168884204D001F057FB01F01DFB606037
:10570000E068401CE06001281CD117F03FFE054610
:105710002068854216D0002813DBFFF7B3F8014656
:105720002068C0EB0012206900EBC2025167C5EB94
:105730000511064A00EBC100011D1160406FFFF723
:1057400095F8256070BD0000440A00207003002019
:1057500010B5011E01DD024600E04A42064B012061
:1057600053F82040944202D8401C0A28F8DB002954
:1057700000DA401C10BD0000242C04081CB50400F5
:1057800004D10E480068046E002C16D0FFF7AAFF63
:105790002046FEF75FFC009044696846FEF7AEFCC9
:1057A0004CB12046FEF756FC019081688968884715
:1057B00001A8FEF7A3FC01F08FFA1CBD70030020C6
:1057C00001490A4600F002B801F0FFFF2DE9F0435D
:1057D00087B015460C465FEA000846D0FFF782FF07
:1057E000002000F0F9FE814621480068066E404620
:1057F000FEF730FC00900068806900F083FE0746E9
:1058000040F6FF70C44204D10098B0F90440B0F9EA
:1058100006500098611E0289ADF804401144ADF8AD
:1058200008104189681E0844ADF80650ADF80A001A
:105830000DF0E2FB6846FEF761FC01A80FF082F96B
:1058400006E02A462146404600F0E6FB0FF010F93C
:105850000028F6D1384600F055FE304600F0E8F951
:10586000484600F0B9FE01F037FA07B0BDE8F08312
:105870007003002038B50024009400F001F838BD12
:105880002DE9FE4F984691468A46834600270C9E96
:10589000FFF728FF174818490068407C51F820405E
:1058A000E1680968042903D02468002CF8D100E0DD
:1058B00014B9FFF71BF804460121E068C26A2046CC
:1058C0009047050011D02469A0688047401C02D190
:1058D0000A4C46F001060096CDE9015443464A467B
:1058E0005146584600F038FA074601F0F5F93846B7
:1058F000BDE8FE8F7003002088030020C02C040840
:105900002DE9FE4F9846DDE90D650C9F91468A46CC
:10591000834600246DB1FFF7E5FE0097CDE90165F0
:1059200043464A465146584600F016FA044601F0EE
:10593000D3F92046BDE8FE8F38B504001CD0FFF730
:10594000D1FE0E480068006EA04201D100F0CCFDEF
:105950002046FEF77FFB0090406908B101F0A5F9F1
:1059600000980068FEF73CFF6846FEF7C7FB20463C
:10597000FEF7A4FA01F0B0F938BD00007003002072
:105980002DE9FF4F0746464883B099460068DDF889
:1059900040B08A46447C434800570128204606DD33
:1059A00003F004FF8046204603F00CFF05E003F0FF
:1059B000ECFE8046204603F0EEFE044617B302A933
:1059C00001A8FFF7C4FDB7F90060002E00DA002639
:1059D000B7F90250002D00DA00250199B7F904004B
:1059E0004144491E18F038FF804602980119B7F962
:1059F0000600491E18F030FFA8EB0602441B521C9B
:105A0000641C02E0002635464246B9F1000F01D180
:105A1000C4F10009002A01DD002C03DC002007B0DE
:105A2000BDE8F08F4B4629463046CDF800B0FFF771
:105A300027FF5FEA000909D000F0B4F88046484625
:105A400000F0F6F80027DFF860B01FE05146059837
:105A500088470120E3E7E11B414502DA484600F0B0
:105A6000CBF83FB1EA193146484600F009F94846FB
:105A7000FFF784FE514605988847DBF8001009B10E
:105A8000002088474846FFF79BFE4744A742E2DBD9
:105A90004846FFF751FF002000F0CAF8BEE70000BB
:105AA00070030020A8030020840A002038B50500F8
:105AB0004FF0000411D0FFF715FE2846FEF7CAFA92
:105AC0000090006800698068804704F031FF044658
:105AD0006846FEF713FB01F0FFF8204638BD38B5E5
